{
  "contractName": "DiamondFacet",
  "abi": [
    {
      "anonymous": false,
      "inputs": [
        {
          "indexed": false,
          "internalType": "bytes[]",
          "name": "_diamondCut",
          "type": "bytes[]"
        }
      ],
      "name": "DiamondCut",
      "type": "event"
    },
    {
      "inputs": [
        {
          "internalType": "bytes[]",
          "name": "_diamondCut",
          "type": "bytes[]"
        }
      ],
      "name": "diamondCut",
      "outputs": [],
      "stateMutability": "nonpayable",
      "type": "function"
    }
  ],
  "bytecode": "0x608060405234801561001057600080fd5b50610dd5806100206000396000f3fe608060405234801561001057600080fd5b506004361061002b5760003560e01c806399f5f52e14610030575b600080fd5b61004a600480360381019061004591906109fa565b61004c565b005b60006100566108c7565b90506100606108f4565b8160020154816000018181525050600081600001516fffffffffffffffffffffffffffffffff169050600060808360000151901c6fffffffffffffffffffffffffffffffff16905060008111156100d157836001016000838152602001908152602001600020548360200181815250505b60005b855181101561083e5760608682815181106100eb57fe5b602002602001015190506014815111610139576040517f08c379a000000000000000000000000000000000000000000000000000000000815260040161013090610c25565b60405180910390fd5b6000602082015190506000816bffffffffffffffffffffffff191690506000600460148551038161016657fe5b0490506000603490506000801b83146104135760005b8281101561040d57600082870151905060048301925060008c6000016000837bffffffffffffffffffffffffffffffffffffffffffffffffffffffff19167bffffffffffffffffffffffffffffffffffffffffffffffffffffffff191681526020019081526020016000205490506000801b811415610331578a60001b60408b60001b901b8717178d6000016000847bffffffffffffffffffffffffffffffffffffffffffffffffffffffff19167bffffffffffffffffffffffffffffffffffffffffffffffffffffffff191681526020019081526020016000208190555060208a02827bffffffffffffffffffffffffffffffffffffffffffffffffffffffff1916901c60208b027fffffffff0000000000000000000000000000000000000000000000000000000060001b901c198d6020015116178c602001818152505089806001019a505060088a141561031a578b602001518d60010160008d8152602001908152602001600020819055506000801b8c6020018181525050600099508a806001019b505060008c60a001901515908115158152505061032c565b60018c60a00190151590811515815250505b6103fe565b856bffffffffffffffffffffffff1916816bffffffffffffffffffffffff19161415610392576040517f08c379a000000000000000000000000000000000000000000000000000000000815260040161038990610c45565b60405180910390fd5b856bffffffffffffffffffffffff60001b8216178d6000016000847bffffffffffffffffffffffffffffffffffffffffffffffffffffffff19167bffffffffffffffffffffffffffffffffffffffffffffffffffffffff19168152602001908152602001600020819055505b5050808060010191505061017c565b5061082c565b60005b8281101561082a57600082870151905060048301925060008c6000016000837bffffffffffffffffffffffffffffffffffffffffffffffffffffffff19167bffffffffffffffffffffffffffffffffffffffffffffffffffffffff191681526020019081526020016000205490506000801b8114156104ca576040517f08c379a00000000000000000000000000000000000000000000000000000000081526004016104c190610c05565b60405180910390fd5b6000801b8c602001511415610506578a80600190039b50508c60010160008c8152602001908152602001600020548c6020018181525050600899505b8060001c67ffffffffffffffff168c6040018181525050604081901c60001c63ffffffff168c60600181815250506000602060018c03028d60200151901b90508b8d604001511461060d578d60010160008e604001518152602001908152602001600020548d608001818152505060208d6060015102817bffffffffffffffffffffffffffffffffffffffffffffffffffffffff1916901c60208e60600151027fffffffff0000000000000000000000000000000000000000000000000000000060001b901c198e6080015116178d60800181815250508c608001518e60010160008f604001518152602001908152602001600020819055508a80600190039b5050610680565b60208d6060015102817bffffffffffffffffffffffffffffffffffffffffffffffffffffffff1916901c60208e60600151027fffffffff0000000000000000000000000000000000000000000000000000000060001b901c198e6020015116178d60200181815250508a80600190039b50505b60008b14156106b0578d60010160008d8152602001908152602001600020600090556000801b8d60200181815250505b827bffffffffffffffffffffffffffffffffffffffffffffffffffffffff1916817bffffffffffffffffffffffffffffffffffffffffffffffffffffffff1916146107c3578d6000016000827bffffffffffffffffffffffffffffffffffffffffffffffffffffffff19167bffffffffffffffffffffffffffffffffffffffffffffffffffffffff19168152602001908152602001600020546bffffffffffffffffffffffff19166bffffffffffffffffffffffff60001b8316178e6000016000837bffffffffffffffffffffffffffffffffffffffffffffffffffffffff19167bffffffffffffffffffffffffffffffffffffffffffffffffffffffff19168152602001908152602001600020819055505b8d6000016000847bffffffffffffffffffffffffffffffffffffffffffffffffffffffff19167bffffffffffffffffffffffffffffffffffffffffffffffffffffffff19168152602001908152602001600020600090555050508080600101915050610416565b505b505050505080806001019150506100d4565b50600082608083901b1790508360000151811461085f578085600201819055505b8360a0015115610888578360200151856001016000858152602001908152602001600020819055505b7f6ace155508eb66f4d8afce32f392ee3b0a8ab3c0133964f1f3c613e497da45fe866040516108b79190610be3565b60405180910390a1505050505050565b6000807fc8fcad8db84d3cc18b4c41d551ea0ee66dd599cde068d998e57d5e09332c131c90508091505090565b6040518060c0016040528060008152602001600080191681526020016000815260200160008152602001600080191681526020016000151581525090565b600082601f83011261094357600080fd5b813561095661095182610c92565b610c65565b9150818183526020840193506020810190508360005b8381101561099c578135860161098288826109a6565b84526020840193506020830192505060018101905061096c565b5050505092915050565b600082601f8301126109b757600080fd5b81356109ca6109c582610cba565b610c65565b915080825260208301602083018583830111156109e657600080fd5b6109f1838284610d4c565b50505092915050565b600060208284031215610a0c57600080fd5b600082013567ffffffffffffffff811115610a2657600080fd5b610a3284828501610932565b91505092915050565b6000610a478383610ac4565b905092915050565b6000610a5a82610cf6565b610a648185610d19565b935083602082028501610a7685610ce6565b8060005b85811015610ab25784840389528151610a938582610a3b565b9450610a9e83610d0c565b925060208a01995050600181019050610a7a565b50829750879550505050505092915050565b6000610acf82610d01565b610ad98185610d2a565b9350610ae9818560208601610d5b565b610af281610d8e565b840191505092915050565b6000610b0a602583610d3b565b91507f46756e6374696f6e20646f65736e27742065786973742e2043616e277420726560008301527f6d6f76652e0000000000000000000000000000000000000000000000000000006020830152604082019050919050565b6000610b70601f83610d3b565b91507f4d697373696e67206661636574206f722073656c6563746f7220696e666f2e006000830152602082019050919050565b6000610bb0601b83610d3b565b91507f46756e6374696f6e2063757420746f2073616d652066616365742e00000000006000830152602082019050919050565b60006020820190508181036000830152610bfd8184610a4f565b905092915050565b60006020820190508181036000830152610c1e81610afd565b9050919050565b60006020820190508181036000830152610c3e81610b63565b9050919050565b60006020820190508181036000830152610c5e81610ba3565b9050919050565b6000604051905081810181811067ffffffffffffffff82111715610c8857600080fd5b8060405250919050565b600067ffffffffffffffff821115610ca957600080fd5b602082029050602081019050919050565b600067ffffffffffffffff821115610cd157600080fd5b601f19601f8301169050602081019050919050565b6000819050602082019050919050565b600081519050919050565b600081519050919050565b6000602082019050919050565b600082825260208201905092915050565b600082825260208201905092915050565b600082825260208201905092915050565b82818337600083830152505050565b60005b83811015610d79578082015181840152602081019050610d5e565b83811115610d88576000848401525b50505050565b6000601f19601f830116905091905056fea2646970667358221220502d1cf0b478f943c4dd77a696763b4f0a7d202e9f7ef68de3d3ffeebcd1bf2a64736f6c63430007000033",
  "immutableReferences": {},
  "source": "// SPDX-License-Identifier: MIT\r\npragma solidity ^0.7.0;\r\npragma experimental ABIEncoderV2;\r\n\r\n/******************************************************************************\\\r\n* Author: Nick Mudge\r\n*\r\n* Implementation of Diamond facet.\r\n* This is gas optimized by reducing storage reads and storage writes.\r\n/******************************************************************************/\r\n\r\nimport { DiamondStorageContract } from '../storage/DiamondStorageContract.sol';\r\nimport { IDiamond } from '../interfaces/IDiamond.sol';\r\n\r\ncontract DiamondFacet is IDiamond, DiamondStorageContract {\r\n    bytes32 constant CLEAR_ADDRESS_MASK = 0x0000000000000000000000000000000000000000ffffffffffffffffffffffff;\r\n    bytes32 constant CLEAR_SELECTOR_MASK = 0xffffffff00000000000000000000000000000000000000000000000000000000;\r\n\r\n    // This struct is used to prevent getting the error \"CompilerError: Stack too deep, try removing local variables.\"\r\n    // See this article: https://medium.com/1milliondevs/compilererror-stack-too-deep-try-removing-local-variables-solved-a6bcecc16231\r\n    struct SlotInfo {\r\n        uint originalSelectorSlotsLength;\r\n        bytes32 selectorSlot;\r\n        uint oldSelectorSlotsIndex;\r\n        uint oldSelectorSlotIndex;\r\n        bytes32 oldSelectorSlot;\r\n        bool newSlot;\r\n    }\r\n\r\n    function diamondCut(bytes[] memory _diamondCut) public override {\r\n        DiamondStorage storage ds = diamondStorage();\r\n        SlotInfo memory slot;\r\n        slot.originalSelectorSlotsLength = ds.selectorSlotsLength;\r\n        uint selectorSlotsLength = uint128(slot.originalSelectorSlotsLength);\r\n        uint selectorSlotLength = uint128(slot.originalSelectorSlotsLength >> 128);\r\n        if(selectorSlotLength > 0) {\r\n            slot.selectorSlot = ds.selectorSlots[selectorSlotsLength];\r\n        }\r\n        // loop through diamond cut\r\n        for(uint diamondCutIndex; diamondCutIndex < _diamondCut.length; diamondCutIndex++) {\r\n            bytes memory facetCut = _diamondCut[diamondCutIndex];\r\n            require(facetCut.length > 20, \"Missing facet or selector info.\");\r\n            bytes32 currentSlot;\r\n            assembly {\r\n                currentSlot := mload(add(facetCut,32))\r\n            }\r\n            bytes32 newFacet = bytes20(currentSlot);\r\n            uint numSelectors = (facetCut.length - 20) / 4;\r\n            uint position = 52;\r\n            \r\n            // adding or replacing functions\r\n            if(newFacet != 0) {\r\n                // add and replace selectors\r\n                for(uint selectorIndex; selectorIndex < numSelectors; selectorIndex++) {\r\n                    bytes4 selector;\r\n                    assembly {\r\n                        selector := mload(add(facetCut,position))\r\n                    }\r\n                    position += 4;\r\n                    bytes32 oldFacet = ds.facets[selector];\r\n                    // add\r\n                    if(oldFacet == 0) {\r\n                        ds.facets[selector] = newFacet | bytes32(selectorSlotLength) << 64 | bytes32(selectorSlotsLength);\r\n                        slot.selectorSlot = slot.selectorSlot & ~(CLEAR_SELECTOR_MASK >> selectorSlotLength * 32) | bytes32(selector) >> selectorSlotLength * 32;\r\n                        selectorSlotLength++;\r\n                        if(selectorSlotLength == 8) {\r\n                            ds.selectorSlots[selectorSlotsLength] = slot.selectorSlot;\r\n                            slot.selectorSlot = 0;\r\n                            selectorSlotLength = 0;\r\n                            selectorSlotsLength++;\r\n                            slot.newSlot = false;\r\n                        }\r\n                        else {\r\n                            slot.newSlot = true;\r\n                        }\r\n                    }\r\n                    // replace\r\n                    else {\r\n                        require(bytes20(oldFacet) != bytes20(newFacet), \"Function cut to same facet.\");\r\n                        ds.facets[selector] = oldFacet & CLEAR_ADDRESS_MASK | newFacet;\r\n                    }\r\n                }\r\n            }\r\n            // remove functions\r\n            else {\r\n                for(uint selectorIndex; selectorIndex < numSelectors; selectorIndex++) {\r\n                    bytes4 selector;\r\n                    assembly {\r\n                        selector := mload(add(facetCut,position))\r\n                    }\r\n                    position += 4;\r\n                    bytes32 oldFacet = ds.facets[selector];\r\n                    require(oldFacet != 0, \"Function doesn't exist. Can't remove.\");\r\n                    if(slot.selectorSlot == 0) {\r\n                        selectorSlotsLength--;\r\n                        slot.selectorSlot = ds.selectorSlots[selectorSlotsLength];\r\n                        selectorSlotLength = 8;\r\n                    }\r\n                    slot.oldSelectorSlotsIndex = uint64(uint(oldFacet));\r\n                    slot.oldSelectorSlotIndex = uint32(uint(oldFacet >> 64));\r\n                    bytes4 lastSelector = bytes4(slot.selectorSlot << (selectorSlotLength-1) * 32);\r\n                    if(slot.oldSelectorSlotsIndex != selectorSlotsLength) {\r\n                        slot.oldSelectorSlot = ds.selectorSlots[slot.oldSelectorSlotsIndex];                            \r\n                        slot.oldSelectorSlot = slot.oldSelectorSlot & ~(CLEAR_SELECTOR_MASK >> slot.oldSelectorSlotIndex * 32) | bytes32(lastSelector) >> slot.oldSelectorSlotIndex * 32;                                                \r\n                        ds.selectorSlots[slot.oldSelectorSlotsIndex] = slot.oldSelectorSlot;                        \r\n                        selectorSlotLength--;                            \r\n                    }\r\n                    else {\r\n                        slot.selectorSlot = slot.selectorSlot & ~(CLEAR_SELECTOR_MASK >> slot.oldSelectorSlotIndex * 32) | bytes32(lastSelector) >> slot.oldSelectorSlotIndex * 32;\r\n                        selectorSlotLength--;\r\n                    }\r\n                    if(selectorSlotLength == 0) {\r\n                        delete ds.selectorSlots[selectorSlotsLength];                                                \r\n                        slot.selectorSlot = 0;\r\n                    }\r\n                    if(lastSelector != selector) {                      \r\n                        ds.facets[lastSelector] = oldFacet & CLEAR_ADDRESS_MASK | bytes20(ds.facets[lastSelector]); \r\n                    }\r\n                    delete ds.facets[selector];\r\n                }\r\n            }\r\n        }\r\n        uint newSelectorSlotsLength = selectorSlotLength << 128 | selectorSlotsLength;\r\n        if(newSelectorSlotsLength != slot.originalSelectorSlotsLength) {\r\n            ds.selectorSlotsLength = newSelectorSlotsLength;            \r\n        }        \r\n        if(slot.newSlot) {\r\n            ds.selectorSlots[selectorSlotsLength] = slot.selectorSlot;                        \r\n        }\r\n        emit DiamondCut(_diamondCut);\r\n    }\r\n}",
  "sourcePath": "C:\\Users\\mudge\\projects\\diamond-governance-token\\contracts\\facets\\DiamondFacet.sol",
  "compiler": {
    "name": "solc",
    "version": "0.7.0+commit.9e61f92b.Emscripten.clang"
  },
  "schemaVersion": "3.1.0",
  "updatedAt": "2020-08-02T19:17:52.551Z",
  "devdoc": {
    "kind": "dev",
    "methods": {},
    "version": 1
  },
  "userdoc": {
    "kind": "user",
    "methods": {
      "diamondCut(bytes[])": {
        "notice": "_diamondCut is an array of bytes arrays. This argument is tightly packed for gas efficiency. That means no padding with zeros. Here is the structure of _diamondCut: _diamondCut = [     abi.encodePacked(facet, sel1, sel2, sel3, ...),     abi.encodePacked(facet, sel1, sel2, sel4, ...),     ... ] facet is the address of a facet sel1, sel2, sel3 etc. are four-byte function selectors."
      }
    },
    "version": 1
  }
}