{
  "contractName": "DiamondLoupe",
  "abi": [
    {
      "inputs": [],
      "name": "facets",
      "outputs": [
        {
          "internalType": "bytes[]",
          "name": "",
          "type": "bytes[]"
        }
      ],
      "stateMutability": "view",
      "type": "function"
    },
    {
      "inputs": [
        {
          "internalType": "address",
          "name": "_facet",
          "type": "address"
        }
      ],
      "name": "facetFunctionSelectors",
      "outputs": [
        {
          "internalType": "bytes",
          "name": "",
          "type": "bytes"
        }
      ],
      "stateMutability": "view",
      "type": "function"
    },
    {
      "inputs": [],
      "name": "facetAddresses",
      "outputs": [
        {
          "internalType": "bytes",
          "name": "",
          "type": "bytes"
        }
      ],
      "stateMutability": "view",
      "type": "function"
    },
    {
      "inputs": [
        {
          "internalType": "bytes4",
          "name": "_functionSelector",
          "type": "bytes4"
        }
      ],
      "name": "facetAddress",
      "outputs": [
        {
          "internalType": "address",
          "name": "",
          "type": "address"
        }
      ],
      "stateMutability": "view",
      "type": "function"
    },
    {
      "inputs": [
        {
          "internalType": "bytes4",
          "name": "_interfaceID",
          "type": "bytes4"
        }
      ],
      "name": "supportsInterface",
      "outputs": [
        {
          "internalType": "bool",
          "name": "",
          "type": "bool"
        }
      ],
      "stateMutability": "view",
      "type": "function"
    }
  ],
  "bytecode": "0x608060405234801561001057600080fd5b5061160d806100206000396000f3fe608060405234801561001057600080fd5b50600436106100575760003560e01c806301ffc9a71461005c57806352ef6b2c1461008c5780637a0ed627146100aa578063adfca15e146100c8578063cdffacc6146100f8575b600080fd5b6100766004803603810190610071919061122d565b610128565b604051610083919061141c565b60405180910390f35b61009461019e565b6040516100a19190611437565b60405180910390f35b6100b26104eb565b6040516100bf91906113fa565b60405180910390f35b6100e260048036038101906100dd9190611204565b610dec565b6040516100ef9190611437565b60405180910390f35b610112600480360381019061010d919061122d565b611111565b60405161011f91906113df565b60405180910390f35b60008061013361117d565b9050806000016000847bffffffffffffffffffffffffffffffffffffffffffffffffffffffff19167bffffffffffffffffffffffffffffffffffffffffffffffffffffffff1916815260200190815260200160002060009054906101000a900460ff16915050919050565b606060006101aa61117d565b90506000816003015490506000608082901c6fffffffffffffffffffffffffffffffff169050816fffffffffffffffffffffffffffffffff1691506000816008840201905060008211156102015782806001019350505b60608167ffffffffffffffff8111801561021a57600080fd5b506040519080825280602002602001820160405280156102495781602001602082028036833780820191505090505b50905060008060005b848210156103e657600088600201600083815260200190815260200160002054905060005b60088110156103d757838060010194505086841115610295576103d7565b60006020820283901b905060008b6001016000837bffffffffffffffffffffffffffffffffffffffffffffffffffffffff19167bffffffffffffffffffffffffffffffffffffffffffffffffffffffff191681526020019081526020016000205460601c90506000805b888110156103645789818151811061031357fe5b602002602001015173ffffffffffffffffffffffffffffffffffffffff168373ffffffffffffffffffffffffffffffffffffffff1614156103575760019150610364565b80806001019150506102ff565b50801561037757600090505050506103ca565b8189898151811061038457fe5b602002602001019073ffffffffffffffffffffffffffffffffffffffff16908173ffffffffffffffffffffffffffffffffffffffff168152505087806001019850505050505b8080600101915050610277565b50508080600101915050610252565b5060608260140267ffffffffffffffff8111801561040357600080fd5b506040519080825280601f01601f1916602001820160405280156104365781602001600182028036833780820191505090505b5090506000805b848110156104db5760005b60148110156104cd576008810287838151811061046157fe5b602002602001015160601b6bffffffffffffffffffffffff1916901b84848151811061048957fe5b60200101907effffffffffffffffffffffffffffffffffffffffffffffffffffffffffffff1916908160001a90535082806001019350508080600101915050610448565b50808060010191505061043d565b5081995050505050505050505090565b606060006104f761117d565b90506000816003015490506000608082901c6fffffffffffffffffffffffffffffffff169050816fffffffffffffffffffffffffffffffff16915060008160088402019050600082111561054e5782806001019350505b6000819050601481111561056157601490505b60608167ffffffffffffffff8111801561057a57600080fd5b506040519080825280602002602001820160405280156105b457816020015b6105a16111aa565b8152602001906001900390816105995790505b50905060608267ffffffffffffffff811180156105d057600080fd5b506040519080825280602002602001820160405280156105ff5781602001602082028036833780820191505090505b50905060008060005b86821015610be55760008a600201600083815260200190815260200160002054905060005b6008811015610bd65783806001019450508884111561064b57610bd6565b60006020820283901b905060008d6001016000837bffffffffffffffffffffffffffffffffffffffffffffffffffffffff19167bffffffffffffffffffffffffffffffffffffffffffffffffffffffff191681526020019081526020016000205460601c90506000805b88811015610932578273ffffffffffffffffffffffffffffffffffffffff168b82815181106106e057fe5b60200260200101516000015173ffffffffffffffffffffffffffffffffffffffff1614156109255760008b828151811061071657fe5b6020026020010151602001515190508060018c848151811061073457fe5b60200260200101510160ff16111561084d5760608d820167ffffffffffffffff8111801561076157600080fd5b506040519080825280602002602001820160405280156107905781602001602082028036833780820191505090505b50905060005b8281101561082e578d84815181106107aa57fe5b60200260200101516020015181815181106107c157fe5b60200260200101518282815181106107d557fe5b60200260200101907bffffffffffffffffffffffffffffffffffffffffffffffffffffffff191690817bffffffffffffffffffffffffffffffffffffffffffffffffffffffff1916815250508080600101915050610796565b50808d848151811061083c57fe5b602002602001015160200181905250505b848c838151811061085a57fe5b6020026020010151602001518c848151811061087257fe5b602002602001015160ff168151811061088757fe5b60200260200101907bffffffffffffffffffffffffffffffffffffffffffffffffffffffff191690817bffffffffffffffffffffffffffffffffffffffffffffffffffffffff19168152505060ff8b83815181106108e157fe5b602002602001015160ff16106108f657600080fd5b8a828151811061090257fe5b60200260200101805180919060010160ff1660ff16815250506001925050610932565b80806001019150506106b5565b5080156109455760009050505050610bc9565b60008a5190508060018a011115610a7c5760608c820167ffffffffffffffff8111801561097157600080fd5b506040519080825280602002602001820160405280156109ab57816020015b6109986111aa565b8152602001906001900390816109905790505b50905060608d830167ffffffffffffffff811180156109c957600080fd5b506040519080825280602002602001820160405280156109f85781602001602082028036833780820191505090505b50905060005b83811015610a72578d8181518110610a1257fe5b6020026020010151838281518110610a2657fe5b60200260200101819052508c8181518110610a3d57fe5b6020026020010151828281518110610a5157fe5b602002602001019060ff16908160ff168152505080806001019150506109fe565b50819c50809b5050505b828b8a81518110610a8957fe5b60200260200101516000019073ffffffffffffffffffffffffffffffffffffffff16908173ffffffffffffffffffffffffffffffffffffffff16815250508b67ffffffffffffffff81118015610ade57600080fd5b50604051908082528060200260200182016040528015610b0d5781602001602082028036833780820191505090505b508b8a81518110610b1a57fe5b602002602001015160200181905250838b8a81518110610b3657fe5b602002602001015160200151600081518110610b4e57fe5b60200260200101907bffffffffffffffffffffffffffffffffffffffffffffffffffffffff191690817bffffffffffffffffffffffffffffffffffffffffffffffffffffffff19168152505060018a8a81518110610ba857fe5b602002602001019060ff16908160ff16815250508880600101995050505050505b808060010191505061062d565b50508080600101915050610608565b5060608267ffffffffffffffff81118015610bff57600080fd5b50604051908082528060200260200182016040528015610c3357816020015b6060815260200190600190039081610c1e5790505b50905060005b83811015610ddb576000858281518110610c4f57fe5b602002602001015160ff16905060608160040267ffffffffffffffff81118015610c7857600080fd5b506040519080825280601f01601f191660200182016040528015610cab5781602001600182028036833780820191505090505b5090506060888481518110610cbc57fe5b60200260200101516020015190506000805b84811015610d795760005b6004811015610d6b5760088102848381518110610cf257fe5b60200260200101517bffffffffffffffffffffffffffffffffffffffffffffffffffffffff1916901b858481518110610d2757fe5b60200101907effffffffffffffffffffffffffffffffffffffffffffffffffffffffffffff1916908160001a90535082806001019350508080600101915050610cd9565b508080600101915050610cce565b50898581518110610d8657fe5b60200260200101516000015183604051602001610da49291906113b7565b604051602081830303815290604052868681518110610dbf57fe5b6020026020010181905250505050508080600101915050610c39565b50809a505050505050505050505090565b60606000610df861117d565b90506000816003015490506000608082901c6fffffffffffffffffffffffffffffffff169050816fffffffffffffffffffffffffffffffff169150600081600884020190506000821115610e4f5782806001019350505b600060608267ffffffffffffffff81118015610e6a57600080fd5b50604051908082528060200260200182016040528015610e995781602001602082028036833780820191505090505b5090506000805b84821015610ffd57600088600201600083815260200190815260200160002054905060005b6008811015610fee57838060010194505086841115610ee357610fee565b60006020820283901b905060008b6001016000837bffffffffffffffffffffffffffffffffffffffffffffffffffffffff19167bffffffffffffffffffffffffffffffffffffffffffffffffffffffff191681526020019081526020016000205460601c90508073ffffffffffffffffffffffffffffffffffffffff168e73ffffffffffffffffffffffffffffffffffffffff161415610fdf5781878981518110610f8a57fe5b60200260200101907bffffffffffffffffffffffffffffffffffffffffffffffffffffffff191690817bffffffffffffffffffffffffffffffffffffffffffffffffffffffff19168152505087806001019850505b50508080600101915050610ec5565b50508080600101915050610ea0565b5060608360040267ffffffffffffffff8111801561101a57600080fd5b506040519080825280601f01601f19166020018201604052801561104d5781602001600182028036833780820191505090505b5090506000805b858110156110ff5760005b60048110156110f1576008810286838151811061107857fe5b60200260200101517bffffffffffffffffffffffffffffffffffffffffffffffffffffffff1916901b8484815181106110ad57fe5b60200101907effffffffffffffffffffffffffffffffffffffffffffffffffffffffffffff1916908160001a9053508280600101935050808060010191505061105f565b508080600101915050611054565b50819950505050505050505050919050565b60008061111c61117d565b9050806001016000847bffffffffffffffffffffffffffffffffffffffffffffffffffffffff19167bffffffffffffffffffffffffffffffffffffffffffffffffffffffff191681526020019081526020016000205460601c915050919050565b6000807fc8fcad8db84d3cc18b4c41d551ea0ee66dd599cde068d998e57d5e09332c131c90508091505090565b6040518060400160405280600073ffffffffffffffffffffffffffffffffffffffff168152602001606081525090565b6000813590506111e9816115a9565b92915050565b6000813590506111fe816115c0565b92915050565b60006020828403121561121657600080fd5b6000611224848285016111da565b91505092915050565b60006020828403121561123f57600080fd5b600061124d848285016111ef565b91505092915050565b60006112628383611314565b905092915050565b611273816114ca565b82525050565b61128a611285826114ca565b611567565b82525050565b600061129b82611469565b6112a5818561148c565b9350836020820285016112b785611459565b8060005b858110156112f357848403895281516112d48582611256565b94506112df8361147f565b925060208a019950506001810190506112bb565b50829750879550505050505092915050565b61130e816114dc565b82525050565b600061131f82611474565b611329818561149d565b9350611339818560208601611534565b6113428161158b565b840191505092915050565b600061135882611474565b61136281856114ae565b9350611372818560208601611534565b61137b8161158b565b840191505092915050565b600061139182611474565b61139b81856114bf565b93506113ab818560208601611534565b80840191505092915050565b60006113c38285611279565b6014820191506113d38284611386565b91508190509392505050565b60006020820190506113f4600083018461126a565b92915050565b600060208201905081810360008301526114148184611290565b905092915050565b60006020820190506114316000830184611305565b92915050565b60006020820190508181036000830152611451818461134d565b905092915050565b6000819050602082019050919050565b600081519050919050565b600081519050919050565b6000602082019050919050565b600082825260208201905092915050565b600082825260208201905092915050565b600082825260208201905092915050565b600081905092915050565b60006114d582611514565b9050919050565b60008115159050919050565b60007fffffffff0000000000000000000000000000000000000000000000000000000082169050919050565b600073ffffffffffffffffffffffffffffffffffffffff82169050919050565b60005b83811015611552578082015181840152602081019050611537565b83811115611561576000848401525b50505050565b600061157282611579565b9050919050565b60006115848261159c565b9050919050565b6000601f19601f8301169050919050565b60008160601b9050919050565b6115b2816114ca565b81146115bd57600080fd5b50565b6115c9816114e8565b81146115d457600080fd5b5056fea26469706673582212209ca2a5c77506f708fe204b32650141960649e65102a100ac81c26afcdb21c20964736f6c63430007000033",
  "immutableReferences": {},
  "source": "// SPDX-License-Identifier: MIT\r\npragma solidity ^0.7.0;\r\npragma experimental ABIEncoderV2;\r\n\r\n/******************************************************************************\\\r\n* Author: Nick Mudge\r\n*\r\n* Implementation of DiamondLoupe interface.\r\n/******************************************************************************/\r\n\r\nimport { DiamondStorageContract } from '../lib/Diamond.sol';\r\nimport { IDiamondLoupe } from '../interfaces/IDiamondLoupe.sol';\r\n\r\n\r\ncontract DiamondLoupe is IDiamondLoupe, DiamondStorageContract {\r\n    /// These functions are expected to be called frequently\r\n    /// by tools. Therefore the return values are tightly\r\n    /// packed for efficiency. That means no padding with zeros.    \r\n    \r\n    struct Facet {\r\n        address facet;\r\n        bytes4[] functionSelectors;\r\n    }  \r\n\r\n    /// @notice Gets all facets and their selectors.\r\n    /// @return An array of bytes arrays containing each facet \r\n    ///         and each facet's selectors.\r\n    /// The return value is tightly packed.\r\n    /// That means no padding with zeros.\r\n    /// Here is the structure of the return value:\r\n    /// returnValue = [\r\n    ///     abi.encodePacked(facet, sel1, sel2, sel3, ...),\r\n    ///     abi.encodePacked(facet, sel1, sel2, sel3, ...),\r\n    ///     ...\r\n    /// ]    \r\n    /// facet is the address of a facet.    \r\n    /// sel1, sel2, sel3 etc. are four-byte function selectors.\r\n    function facets() external view override returns(bytes[] memory) {\r\n        DiamondStorage storage ds = diamondStorage();\r\n        uint totalSelectorSlots = ds.selectorSlotsLength;\r\n        uint selectorSlotLength = uint128(totalSelectorSlots >> 128);\r\n        totalSelectorSlots = uint128(totalSelectorSlots);        \r\n        uint totalSelectors = totalSelectorSlots * 8 + selectorSlotLength;\r\n        if(selectorSlotLength > 0) {\r\n            totalSelectorSlots++;\r\n        }\r\n        \r\n        // get default size of arrays\r\n        uint defaultSize = totalSelectors;        \r\n        if(defaultSize > 20) {\r\n            defaultSize = 20;\r\n        }        \r\n        Facet[] memory facets_ = new Facet[](defaultSize);\r\n        uint8[] memory numFacetSelectors = new uint8[](defaultSize);\r\n        uint numFacets;\r\n        uint selectorCount;\r\n        // loop through function selectors\r\n        for(uint slotIndex; selectorCount < totalSelectors; slotIndex++) {            \r\n            bytes32 slot = ds.selectorSlots[slotIndex];\r\n            for(uint selectorIndex; selectorIndex < 8; selectorIndex++) {\r\n                selectorCount++;\r\n                if(selectorCount > totalSelectors) {\r\n                    break;\r\n                }\r\n                bytes4 selector = bytes4(slot << selectorIndex * 32);\r\n                address facet = address(bytes20(ds.facets[selector]));\r\n                bool continueLoop = false;                \r\n                for(uint facetIndex; facetIndex < numFacets; facetIndex++) {\r\n                    if(facets_[facetIndex].facet == facet) {                    \r\n                        uint arrayLength = facets_[facetIndex].functionSelectors.length;\r\n                        // if array is too small then enlarge it\r\n                        if(numFacetSelectors[facetIndex]+1 > arrayLength) {\r\n                            bytes4[] memory biggerArray = new bytes4[](arrayLength + defaultSize);\r\n                            // copy contents of old array\r\n                            for(uint i; i < arrayLength; i++) {\r\n                                biggerArray[i] = facets_[facetIndex].functionSelectors[i];\r\n                            }\r\n                            facets_[facetIndex].functionSelectors = biggerArray;\r\n                        }\r\n                        facets_[facetIndex].functionSelectors[numFacetSelectors[facetIndex]] = selector;\r\n                        // probably will never have more than 255 functions from one facet contract\r\n                        require(numFacetSelectors[facetIndex] < 255);\r\n                        numFacetSelectors[facetIndex]++;\r\n                        continueLoop = true;\r\n                        break;\r\n                    }    \r\n                }\r\n                if(continueLoop) {\r\n                    continueLoop = false;\r\n                    continue;\r\n                }\r\n                uint arrayLength = facets_.length;\r\n                // if array is too small then enlarge it\r\n                if(numFacets+1 > arrayLength) {\r\n                    Facet[] memory biggerArray = new Facet[](arrayLength + defaultSize);\r\n                    uint8[] memory biggerArray2 = new uint8[](arrayLength + defaultSize);\r\n                    for(uint i; i < arrayLength; i++) {\r\n                        biggerArray[i] = facets_[i];\r\n                        biggerArray2[i] = numFacetSelectors[i];        \r\n                    }\r\n                    facets_ = biggerArray;\r\n                    numFacetSelectors = biggerArray2;        \r\n                }\r\n                facets_[numFacets].facet = facet;\r\n                facets_[numFacets].functionSelectors = new bytes4[](defaultSize);\r\n                facets_[numFacets].functionSelectors[0] = selector;            \r\n                numFacetSelectors[numFacets] = 1;\r\n                numFacets++;\r\n            }\r\n        }\r\n        bytes[] memory returnFacets = new bytes[](numFacets);\r\n        for(uint facetIndex; facetIndex < numFacets; facetIndex++) {\r\n            uint numSelectors = numFacetSelectors[facetIndex];\r\n            bytes memory selectorsBytes = new bytes(4 * numSelectors);            \r\n            bytes4[] memory selectors = facets_[facetIndex].functionSelectors;\r\n            uint bytePosition;\r\n            for(uint i; i < numSelectors; i++) {\r\n                for(uint j; j < 4; j++) {\r\n                    selectorsBytes[bytePosition] = byte(selectors[i] << j * 8);\r\n                    bytePosition++;\r\n                }\r\n            }\r\n            returnFacets[facetIndex] = abi.encodePacked(facets_[facetIndex].facet, selectorsBytes);\r\n        }\r\n        return returnFacets;\r\n    }\r\n   \r\n    /// @notice Gets all the function selectors supported by a specific facet.\r\n    /// @param _facet The facet address.\r\n    /// @return A bytes array of function selectors.\r\n    /// The return value is tightly packed. Here is an example:\r\n    /// return abi.encodePacked(selector1, selector2, selector3, ...)\r\n    function facetFunctionSelectors(address _facet) external view override returns(bytes memory) {\r\n        DiamondStorage storage ds = diamondStorage();\r\n        uint totalSelectorSlots = ds.selectorSlotsLength;\r\n        uint selectorSlotLength = uint128(totalSelectorSlots >> 128);\r\n        totalSelectorSlots = uint128(totalSelectorSlots);        \r\n        uint totalSelectors = totalSelectorSlots * 8 + selectorSlotLength;\r\n        if(selectorSlotLength > 0) {\r\n            totalSelectorSlots++;\r\n        }                       \r\n\r\n        uint numFacetSelectors;        \r\n        bytes4[] memory facetSelectors = new bytes4[](totalSelectors);\r\n        uint selectorCount;\r\n        // loop through function selectors\r\n        for(uint slotIndex; selectorCount < totalSelectors; slotIndex++) {\r\n            bytes32 slot = ds.selectorSlots[slotIndex];\r\n            for(uint selectorIndex; selectorIndex < 8; selectorIndex++) {\r\n                selectorCount++;\r\n                if(selectorCount > totalSelectors) {\r\n                    break;\r\n                }\r\n                bytes4 selector = bytes4(slot << selectorIndex * 32);\r\n                address facet = address(bytes20(ds.facets[selector]));\r\n                if(_facet == facet) {\r\n                    facetSelectors[numFacetSelectors] = selector;          \r\n                    numFacetSelectors++;\r\n                }\r\n            }   \r\n        }\r\n        bytes memory returnBytes = new bytes(4 * numFacetSelectors);\r\n        uint bytePosition;\r\n        for(uint i; i < numFacetSelectors; i++) {\r\n            for(uint j; j < 4; j++) {\r\n                returnBytes[bytePosition] = byte(facetSelectors[i] << j * 8);\r\n                bytePosition++;\r\n            }\r\n        }\r\n        return returnBytes;\r\n    }\r\n    \r\n    /// @notice Get all the facet addresses used by a diamond.\r\n    /// @return A byte array of tightly packed facet addresses.\r\n    /// Example return value: \r\n    /// return abi.encodePacked(facet1, facet2, facet3, ...)\r\n    function facetAddresses() external view override returns(bytes memory) {\r\n        DiamondStorage storage ds = diamondStorage();\r\n        uint totalSelectorSlots = ds.selectorSlotsLength;\r\n        uint selectorSlotLength = uint128(totalSelectorSlots >> 128);\r\n        totalSelectorSlots = uint128(totalSelectorSlots);        \r\n        uint totalSelectors = totalSelectorSlots * 8 + selectorSlotLength;\r\n        if(selectorSlotLength > 0) {\r\n            totalSelectorSlots++;\r\n        }        \r\n        address[] memory facets_ = new address[](totalSelectors);\r\n        uint numFacets;\r\n        uint selectorCount;\r\n        // loop through function selectors\r\n        for(uint slotIndex; selectorCount < totalSelectors; slotIndex++) {            \r\n            bytes32 slot = ds.selectorSlots[slotIndex];\r\n            for(uint selectorIndex; selectorIndex < 8; selectorIndex++) {\r\n                selectorCount++;\r\n                if(selectorCount > totalSelectors) {\r\n                    break;\r\n                }\r\n                bytes4 selector = bytes4(slot << selectorIndex * 32);\r\n                address facet = address(bytes20(ds.facets[selector]));\r\n                bool continueLoop = false;\r\n                for(uint facetIndex; facetIndex < numFacets; facetIndex++) {\r\n                    if(facet == facets_[facetIndex]) {\r\n                        continueLoop = true;\r\n                        break;\r\n                    }\r\n                }\r\n                if(continueLoop) {\r\n                    continueLoop = false;\r\n                    continue;\r\n                }\r\n                facets_[numFacets] = facet;\r\n                numFacets++;\r\n            }\r\n        }\r\n        \r\n        bytes memory returnBytes = new bytes(20 * numFacets);\r\n        uint bytePosition;\r\n        for(uint i; i < numFacets; i++) {\r\n            for(uint j; j < 20; j++) {\r\n                returnBytes[bytePosition] = byte(bytes20(facets_[i]) << j * 8);\r\n                bytePosition++;\r\n            }\r\n        }\r\n        return returnBytes;\r\n    }\r\n\r\n    /// @notice Gets the facet that supports the given selector.\r\n    /// @dev If facet is not found return address(0).\r\n    /// @param _functionSelector The function selector.\r\n    /// @return The facet address.\r\n    function facetAddress(bytes4 _functionSelector) external view override returns(address) {\r\n        DiamondStorage storage ds = diamondStorage();\r\n        return address(bytes20(ds.facets[_functionSelector]));\r\n    }\r\n\r\n    // This is an immutable functions because it is defined directly in the diamond.\r\n    // This implements ERC-165.\r\n    function supportsInterface(bytes4 _interfaceID) external view returns (bool) {\r\n        DiamondStorage storage ds = diamondStorage();\r\n        return ds.supportedInterfaces[_interfaceID];\r\n    }\r\n}",
  "sourcePath": "C:\\Users\\mudge\\projects\\governance-token-diamond\\contracts\\facets\\DiamondLoupe.sol",
  "compiler": {
    "name": "solc",
    "version": "0.7.0+commit.9e61f92b.Emscripten.clang"
  },
  "schemaVersion": "3.1.0",
  "updatedAt": "2020-08-07T18:06:06.591Z",
  "devdoc": {
    "kind": "dev",
    "methods": {
      "facetAddress(bytes4)": {
        "details": "If facet is not found return address(0).",
        "params": {
          "_functionSelector": "The function selector."
        },
        "returns": {
          "_0": "The facet address."
        }
      },
      "facetAddresses()": {
        "returns": {
          "_0": "A byte array of tightly packed facet addresses. Example return value:  return abi.encodePacked(facet1, facet2, facet3, ...)"
        }
      },
      "facetFunctionSelectors(address)": {
        "params": {
          "_facet": "The facet address."
        },
        "returns": {
          "_0": "A bytes array of function selectors. The return value is tightly packed. Here is an example: return abi.encodePacked(selector1, selector2, selector3, ...)"
        }
      },
      "facets()": {
        "returns": {
          "_0": "An array of bytes arrays containing each facet          and each facet's selectors. The return value is tightly packed. That means no padding with zeros. Here is the structure of the return value: returnValue = [     abi.encodePacked(facet, sel1, sel2, sel3, ...),     abi.encodePacked(facet, sel1, sel2, sel3, ...),     ... ]     facet is the address of a facet.     sel1, sel2, sel3 etc. are four-byte function selectors."
        }
      }
    },
    "version": 1
  },
  "userdoc": {
    "kind": "user",
    "methods": {
      "facetAddress(bytes4)": {
        "notice": "Gets the facet that supports the given selector."
      },
      "facetAddresses()": {
        "notice": "Get all the facet addresses used by a diamond."
      },
      "facetFunctionSelectors(address)": {
        "notice": "Gets all the function selectors supported by a specific facet."
      },
      "facets()": {
        "notice": "Gets all facets and their selectors."
      }
    },
    "version": 1
  }
}