{
  "contractName": "Governance",
  "abi": [
    {
      "anonymous": false,
      "inputs": [
        {
          "indexed": false,
          "internalType": "bytes[]",
          "name": "_diamondCut",
          "type": "bytes[]"
        }
      ],
      "name": "DiamondCut",
      "type": "event"
    },
    {
      "anonymous": false,
      "inputs": [
        {
          "indexed": true,
          "internalType": "uint256",
          "name": "_proposalId",
          "type": "uint256"
        },
        {
          "indexed": true,
          "internalType": "address",
          "name": "_voter",
          "type": "address"
        },
        {
          "indexed": false,
          "internalType": "uint256",
          "name": "_votes",
          "type": "uint256"
        },
        {
          "indexed": false,
          "internalType": "bool",
          "name": "_support",
          "type": "bool"
        }
      ],
      "name": "UnVote",
      "type": "event"
    },
    {
      "anonymous": false,
      "inputs": [
        {
          "indexed": true,
          "internalType": "uint256",
          "name": "_proposalId",
          "type": "uint256"
        },
        {
          "indexed": true,
          "internalType": "address",
          "name": "_voter",
          "type": "address"
        },
        {
          "indexed": false,
          "internalType": "uint256",
          "name": "_votes",
          "type": "uint256"
        },
        {
          "indexed": false,
          "internalType": "bool",
          "name": "_support",
          "type": "bool"
        }
      ],
      "name": "Vote",
      "type": "event"
    },
    {
      "inputs": [],
      "name": "proposalCount",
      "outputs": [
        {
          "internalType": "uint256",
          "name": "",
          "type": "uint256"
        }
      ],
      "stateMutability": "view",
      "type": "function"
    },
    {
      "inputs": [
        {
          "internalType": "address",
          "name": "_proposalContract",
          "type": "address"
        },
        {
          "internalType": "uint256",
          "name": "_endBlock",
          "type": "uint256"
        }
      ],
      "name": "propose",
      "outputs": [],
      "stateMutability": "nonpayable",
      "type": "function"
    },
    {
      "inputs": [
        {
          "internalType": "uint256",
          "name": "_proposalId",
          "type": "uint256"
        },
        {
          "internalType": "bool",
          "name": "_support",
          "type": "bool"
        }
      ],
      "name": "vote",
      "outputs": [],
      "stateMutability": "nonpayable",
      "type": "function"
    },
    {
      "inputs": [
        {
          "internalType": "uint256",
          "name": "_proposalId",
          "type": "uint256"
        }
      ],
      "name": "unvote",
      "outputs": [],
      "stateMutability": "nonpayable",
      "type": "function"
    }
  ],
  "bytecode": "0x608060405234801561001057600080fd5b50610ebc806100206000396000f3fe608060405234801561001057600080fd5b506004361061004c5760003560e01c806351ec428514610051578063589de5df1461006d578063c9d27afe14610089578063da35c664146100a5575b600080fd5b61006b60048036038101906100669190610ba1565b6100c3565b005b61008760048036038101906100829190610b65565b6105e9565b005b6100a3600480360381019061009e9190610bca565b6105fa565b005b6100ad610a7c565b6040516100ba9190610da4565b60405180910390f35b6000806100ce610aa3565b915091508060000160009054906101000a900462ffffff1662ffffff16831061012c576040517f08c379a000000000000000000000000000000000000000000000000000000000815260040161012390610d84565b60405180910390fd5b600081600101600085815260200190815260200160002090508060020160009054906101000a900467ffffffffffffffff1667ffffffffffffffff1643106101a9576040517f08c379a00000000000000000000000000000000000000000000000000000000081526004016101a090610d24565b60405180910390fd5b60008160030160003373ffffffffffffffffffffffffffffffffffffffff1673ffffffffffffffffffffffffffffffffffffffff16815260200190815260200160002060000160009054906101000a90046bffffffffffffffffffffffff166bffffffffffffffffffffffff16905060008260030160003373ffffffffffffffffffffffffffffffffffffffff1673ffffffffffffffffffffffffffffffffffffffff168152602001908152602001600020600001600c9054906101000a900460ff169050600082116102b1576040517f08c379a00000000000000000000000000000000000000000000000000000000081526004016102a890610d64565b60405180910390fd5b801561030c57818360000160148282829054906101000a90046bffffffffffffffffffffffff160392506101000a8154816bffffffffffffffffffffffff02191690836bffffffffffffffffffffffff16021790555061035d565b818360010160148282829054906101000a90046bffffffffffffffffffffffff160392506101000a8154816bffffffffffffffffffffffff02191690836bffffffffffffffffffffffff1602179055505b8260030160003373ffffffffffffffffffffffffffffffffffffffff1673ffffffffffffffffffffffffffffffffffffffff168152602001908152602001600020600080820160006101000a8154906bffffffffffffffffffffffff021916905560008201600c6101000a81549060ff0219169055505060008460020160003373ffffffffffffffffffffffffffffffffffffffff1673ffffffffffffffffffffffffffffffffffffffff168152602001908152602001600020905060008180549050905060005b8181101561047c578883828154811061043a57fe5b90600052602060002090600a91828204019190066003029054906101000a900462ffffff1662ffffff16141561046f5761047c565b8080600101915050610425565b60006001830390508181146104fa5783818154811061049757fe5b90600052602060002090600a91828204019190066003029054906101000a900462ffffff168483815481106104c857fe5b90600052602060002090600a91828204019190066003026101000a81548162ffffff021916908362ffffff1602179055505b8380548061050457fe5b60019003818190600052602060002090600a91828204019190066003026101000a81549062ffffff021916905590553373ffffffffffffffffffffffffffffffffffffffff168a7f9f1f3135d5625fc2500de56ba019d8c41fa224483192466e055e44447121c820888860405161057c929190610dbf565b60405180910390a36064868161058e57fe5b048960010160003373ffffffffffffffffffffffffffffffffffffffff1673ffffffffffffffffffffffffffffffffffffffff1681526020019081526020016000206000828254039250508190555050505050505050505050565b60006105f3610af9565b9050505050565b600080610605610aa3565b915091508060000160009054906101000a900462ffffff1662ffffff168410610663576040517f08c379a000000000000000000000000000000000000000000000000000000000815260040161065a90610d84565b60405180910390fd5b600081600101600086815260200190815260200160002090508060020160009054906101000a900467ffffffffffffffff1667ffffffffffffffff1643106106e0576040517f08c379a00000000000000000000000000000000000000000000000000000000081526004016106d790610d24565b60405180910390fd5b60008160030160003373ffffffffffffffffffffffffffffffffffffffff1673ffffffffffffffffffffffffffffffffffffffff16815260200190815260200160002060000160009054906101000a90046bffffffffffffffffffffffff166bffffffffffffffffffffffff161461078d576040517f08c379a000000000000000000000000000000000000000000000000000000000815260040161078490610d44565b60405180910390fd5b60008360010160003373ffffffffffffffffffffffffffffffffffffffff1673ffffffffffffffffffffffffffffffffffffffff168152602001908152602001600020549050841561082e57808260000160148282829054906101000a90046bffffffffffffffffffffffff160192506101000a8154816bffffffffffffffffffffffff02191690836bffffffffffffffffffffffff16021790555061087f565b808260010160148282829054906101000a90046bffffffffffffffffffffffff160192506101000a8154816bffffffffffffffffffffffff02191690836bffffffffffffffffffffffff1602179055505b6040518060400160405280826bffffffffffffffffffffffff1681526020018615158152508260030160003373ffffffffffffffffffffffffffffffffffffffff1673ffffffffffffffffffffffffffffffffffffffff16815260200190815260200160002060008201518160000160006101000a8154816bffffffffffffffffffffffff02191690836bffffffffffffffffffffffff160217905550602082015181600001600c6101000a81548160ff0219169083151502179055509050508260020160003373ffffffffffffffffffffffffffffffffffffffff1673ffffffffffffffffffffffffffffffffffffffff1681526020019081526020016000208690806001815401808255809150506001900390600052602060002090600a91828204019190066003029091909190916101000a81548162ffffff021916908362ffffff1602179055503373ffffffffffffffffffffffffffffffffffffffff16867f833b8bad1ff76b718af5adb72da0547533a1fb1ff56639c0b2597d636830b0a78388604051610a13929190610dbf565b60405180910390a360648181610a2557fe5b048460010160003373ffffffffffffffffffffffffffffffffffffffff1673ffffffffffffffffffffffffffffffffffffffff16815260200190815260200160002060008282540192505081905550505050505050565b6000610a86610af9565b60000160009054906101000a900462ffffff1662ffffff16905090565b60008060007f6ed1e8b58b8677af52e598804adae6eaacd4c419a6334c92069fde3cd6d8affc90508092507ff11e38b1456bc2ebbd0be55bac6674a44df0110b10ef9e7276d89cfc157e304a9050809150509091565b6000807ff11e38b1456bc2ebbd0be55bac6674a44df0110b10ef9e7276d89cfc157e304a90508091505090565b600081359050610b3581610e41565b92915050565b600081359050610b4a81610e58565b92915050565b600081359050610b5f81610e6f565b92915050565b60008060408385031215610b7857600080fd5b6000610b8685828601610b26565b9250506020610b9785828601610b50565b9150509250929050565b600060208284031215610bb357600080fd5b6000610bc184828501610b50565b91505092915050565b60008060408385031215610bdd57600080fd5b6000610beb85828601610b50565b9250506020610bfc85828601610b3b565b9150509250929050565b610c0f81610e0b565b82525050565b6000610c22600c83610de8565b91507f566f74696e6720656e64656400000000000000000000000000000000000000006000830152602082019050919050565b6000610c62600d83610de8565b91507f416c726561647920766f746564000000000000000000000000000000000000006000830152602082019050919050565b6000610ca2600c83610de8565b91507f446964206e6f7420766f746500000000000000000000000000000000000000006000830152602082019050919050565b6000610ce2601a83610de8565b91507f5f70726f706f73616c496420646f6573206e6f742065786973740000000000006000830152602082019050919050565b610d1e81610e37565b82525050565b60006020820190508181036000830152610d3d81610c15565b9050919050565b60006020820190508181036000830152610d5d81610c55565b9050919050565b60006020820190508181036000830152610d7d81610c95565b9050919050565b60006020820190508181036000830152610d9d81610cd5565b9050919050565b6000602082019050610db96000830184610d15565b92915050565b6000604082019050610dd46000830185610d15565b610de16020830184610c06565b9392505050565b600082825260208201905092915050565b6000610e0482610e17565b9050919050565b60008115159050919050565b600073ffffffffffffffffffffffffffffffffffffffff82169050919050565b6000819050919050565b610e4a81610df9565b8114610e5557600080fd5b50565b610e6181610e0b565b8114610e6c57600080fd5b50565b610e7881610e37565b8114610e8357600080fd5b5056fea2646970667358221220f0133c5d24556eceaaffbbafc25f638cc364844502279e1bba48af61d8e710c664736f6c63430007000033",
  "immutableReferences": {},
  "source": "// SPDX-License-Identifier: MIT\r\npragma solidity ^0.7.0;\r\npragma experimental ABIEncoderV2;\r\n\r\nimport { IERC20 } from '../interfaces/IERC20.sol';\r\nimport { InternalFunctions } from '../lib/InternalFunctions.sol';\r\n\r\n\r\n\r\ncontract Governance is InternalFunctions {\r\n    \r\n    event Vote(uint indexed _proposalId, address indexed _voter, uint _votes, bool _support);\r\n    event UnVote(uint indexed _proposalId, address indexed _voter, uint _votes, bool _support);  \r\n\r\n/*\r\n    /// @notice The number of tokens required for someone to submit a proposal\r\n    function proposerThreshold() public pure returns (uint) { return 1; } // 1 percent of totalSupply\r\n    \r\n    /// @notice The number of votes required for a proposal to pass\r\n    function quorumVotes() public pure returns (uint) { return 10; } // 10 percent of totalSupply\r\n\r\n    function voterReward() public pure returns (uint) \r\n*/\r\n    \r\n    function mint(address _to, uint96 _value) internal {\r\n        ERC20TokenStorage storage ets = erc20TokenStorage();        \r\n        ets.totalSupply += _value;\r\n        ets.balances[_to] += _value;\r\n    }\r\n\r\n    function proposalCount() external view returns (uint) {\r\n        return governanceStorage().proposalCount;\r\n    }\r\n\r\n    function propose(address _proposalContract, uint _endBlock) external {\r\n        GovernanceStorage storage gs = governanceStorage();\r\n    }\r\n\r\n    function vote(uint _proposalId, bool _support) external {\r\n        (ERC20TokenStorage storage ets,\r\n        GovernanceStorage storage gs) = governanceTokenStorage();\r\n        require(_proposalId < gs.proposalCount, '_proposalId does not exist');\r\n        Proposal storage proposal = gs.proposals[_proposalId];\r\n        require(block.number < proposal.endBlock, 'Voting ended');\r\n        require(proposal.voted[msg.sender].votes == 0, 'Already voted');        \r\n        uint balance = ets.balances[msg.sender];\r\n        if(_support) {\r\n            proposal.forVotes += uint96(balance);\r\n        }\r\n        else {\r\n            proposal.againstVotes += uint96(balance);\r\n        }\r\n        proposal.voted[msg.sender] = Voted(uint96(balance), _support);\r\n        gs.votedProposalIds[msg.sender].push(uint24(_proposalId));\r\n        emit Vote(_proposalId, msg.sender, balance, _support);\r\n        // Reward voter with 1 percent increase in token\r\n        ets.balances[msg.sender] += balance / 100;\r\n    }\r\n\r\n    function unvote(uint _proposalId) external {\r\n        (ERC20TokenStorage storage ets,\r\n        GovernanceStorage storage gs) = governanceTokenStorage();\r\n        require(_proposalId < gs.proposalCount, '_proposalId does not exist');\r\n        Proposal storage proposal = gs.proposals[_proposalId];\r\n        require(block.number < proposal.endBlock, 'Voting ended');        \r\n        uint votes = proposal.voted[msg.sender].votes;\r\n        bool support = proposal.voted[msg.sender].support;\r\n        require(votes > 0, 'Did not vote');                \r\n        if(support) {\r\n            proposal.forVotes -= uint96(votes);\r\n        }\r\n        else {\r\n            proposal.againstVotes -= uint96(votes);\r\n        }\r\n        delete proposal.voted[msg.sender];\r\n        uint24[] storage proposalIds = gs.votedProposalIds[msg.sender];\r\n        uint length = proposalIds.length;\r\n        uint index;\r\n        for(; index < length; index++) {\r\n            if(uint(proposalIds[index]) == _proposalId) {\r\n                break;\r\n            }\r\n        }\r\n        uint lastIndex = length-1;\r\n        if(lastIndex != index) {\r\n            proposalIds[index] = proposalIds[lastIndex];    \r\n        }\r\n        proposalIds.pop();\r\n        emit UnVote(_proposalId, msg.sender, votes, support);\r\n        // Remove voter reward\r\n        ets.balances[msg.sender] -= votes / 100;\r\n    }\r\n\r\n}",
  "sourcePath": "C:\\Users\\mudge\\projects\\diamond-governance-token\\contracts\\facets\\Governance.sol",
  "compiler": {
    "name": "solc",
    "version": "0.7.0+commit.9e61f92b.Emscripten.clang"
  },
  "schemaVersion": "3.1.0",
  "updatedAt": "2020-08-04T18:26:05.039Z",
  "devdoc": {
    "kind": "dev",
    "methods": {},
    "version": 1
  },
  "userdoc": {
    "kind": "user",
    "methods": {},
    "version": 1
  }
}