{
  "contractName": "Governance",
  "abi": [
    {
      "anonymous": false,
      "inputs": [
        {
          "indexed": false,
          "internalType": "bytes[]",
          "name": "_diamondCut",
          "type": "bytes[]"
        }
      ],
      "name": "DiamondCut",
      "type": "event"
    },
    {
      "anonymous": false,
      "inputs": [
        {
          "indexed": true,
          "internalType": "uint256",
          "name": "_proposalId",
          "type": "uint256"
        },
        {
          "indexed": true,
          "internalType": "address",
          "name": "_voter",
          "type": "address"
        },
        {
          "indexed": false,
          "internalType": "uint256",
          "name": "_votes",
          "type": "uint256"
        },
        {
          "indexed": false,
          "internalType": "bool",
          "name": "_support",
          "type": "bool"
        }
      ],
      "name": "UnVote",
      "type": "event"
    },
    {
      "anonymous": false,
      "inputs": [
        {
          "indexed": true,
          "internalType": "uint256",
          "name": "_proposalId",
          "type": "uint256"
        },
        {
          "indexed": true,
          "internalType": "address",
          "name": "_voter",
          "type": "address"
        },
        {
          "indexed": false,
          "internalType": "uint256",
          "name": "_votes",
          "type": "uint256"
        },
        {
          "indexed": false,
          "internalType": "bool",
          "name": "_support",
          "type": "bool"
        }
      ],
      "name": "Vote",
      "type": "event"
    },
    {
      "inputs": [],
      "name": "proposalCount",
      "outputs": [
        {
          "internalType": "uint256",
          "name": "",
          "type": "uint256"
        }
      ],
      "stateMutability": "view",
      "type": "function"
    },
    {
      "inputs": [
        {
          "internalType": "address",
          "name": "_proposalContract",
          "type": "address"
        },
        {
          "internalType": "uint256",
          "name": "_endTime",
          "type": "uint256"
        }
      ],
      "name": "propose",
      "outputs": [],
      "stateMutability": "nonpayable",
      "type": "function"
    },
    {
      "inputs": [
        {
          "internalType": "uint256",
          "name": "_proposalId",
          "type": "uint256"
        }
      ],
      "name": "executeProposal",
      "outputs": [],
      "stateMutability": "nonpayable",
      "type": "function"
    },
    {
      "inputs": [
        {
          "internalType": "uint256",
          "name": "_proposalId",
          "type": "uint256"
        }
      ],
      "name": "proposalStatus",
      "outputs": [
        {
          "internalType": "enum Governance.ProposalStatus",
          "name": "status",
          "type": "uint8"
        }
      ],
      "stateMutability": "view",
      "type": "function"
    },
    {
      "inputs": [
        {
          "internalType": "uint256",
          "name": "_proposalId",
          "type": "uint256"
        },
        {
          "internalType": "bool",
          "name": "_support",
          "type": "bool"
        }
      ],
      "name": "vote",
      "outputs": [],
      "stateMutability": "nonpayable",
      "type": "function"
    },
    {
      "inputs": [
        {
          "internalType": "uint256",
          "name": "_proposalId",
          "type": "uint256"
        }
      ],
      "name": "unvote",
      "outputs": [],
      "stateMutability": "nonpayable",
      "type": "function"
    }
  ],
  "bytecode": "0x608060405234801561001057600080fd5b5061208e806100206000396000f3fe608060405234801561001057600080fd5b50600436106100625760003560e01c80630d61b5191461006757806351ec428514610083578063589de5df1461009f57806374c260cf146100bb578063c9d27afe146100eb578063da35c66414610107575b600080fd5b610081600480360381019061007c9190611962565b610125565b005b61009d60048036038101906100989190611962565b6106da565b005b6100b960048036038101906100b49190611926565b610c72565b005b6100d560048036038101906100d09190611962565b6110f9565b6040516100e29190611da0565b60405180910390f35b6101056004803603810190610100919061198b565b61127f565b005b61010f61183d565b60405161011c9190611efb565b60405180910390f35b600080610130611864565b915091506000816000016000858152602001908152602001600020905060008160010160009054906101000a900473ffffffffffffffffffffffffffffffffffffffff169050600073ffffffffffffffffffffffffffffffffffffffff168173ffffffffffffffffffffffffffffffffffffffff1614156101e6576040517f08c379a00000000000000000000000000000000000000000000000000000000081526004016101dd90611e3b565b60405180910390fd5b8160020160149054906101000a900467ffffffffffffffff1667ffffffffffffffff16421161024a576040517f08c379a000000000000000000000000000000000000000000000000000000000815260040161024190611e5b565b60405180910390fd5b6001151582600201601c9054906101000a900460ff16151514156102a3576040517f08c379a000000000000000000000000000000000000000000000000000000000815260040161029a90611ebb565b60405180910390fd5b600182600201601c6101000a81548160ff021916908315150217905550600084600201600c9054906101000a90046bffffffffffffffffffffffff166bffffffffffffffffffffffff169050600083600301600c9054906101000a90046bffffffffffffffffffffffff166bffffffffffffffffffffffff16905060008460030160009054906101000a90046bffffffffffffffffffffffff166bffffffffffffffffffffffff169050600081831180156103b257508660020160089054906101000a900460ff1660ff1688600201600c9054906101000a90046bffffffffffffffffffffffff166bffffffffffffffffffffffff16816103a057fe5b046bffffffffffffffffffffffff1683115b905060008660000160008773ffffffffffffffffffffffffffffffffffffffff1673ffffffffffffffffffffffffffffffffffffffff16815260200190815260200160002060000160009054906101000a90046bffffffffffffffffffffffff166bffffffffffffffffffffffff1690508115610546578660020160009054906101000a900473ffffffffffffffffffffffffffffffffffffffff1673ffffffffffffffffffffffffffffffffffffffff168a6040516024016104759190611efb565b6040516020818303038152906040527fc640060c000000000000000000000000000000000000000000000000000000007bffffffffffffffffffffffffffffffffffffffffffffffffffffffff19166020820180517bffffffffffffffffffffffffffffffffffffffffffffffffffffffff83818316178352505050506040516104ff9190611d89565b600060405180830381855af49150503d806000811461053a576040519150601f19603f3d011682016040523d82523d6000602084013e61053f565b606091505b5050809250505b811561067e578860020160009054906101000a90046bffffffffffffffffffffffff166bffffffffffffffffffffffff1685101561067957600088600201600b9054906101000a900460ff1660ff16868161059d57fe5b049050808211156105ac578091505b60008960020160099054906101000a900460ff1660ff1690508083816105ce57fe5b048b600201600c8282829054906101000a90046bffffffffffffffffffffffff160192506101000a8154816bffffffffffffffffffffffff02191690836bffffffffffffffffffffffff16021790555080838161062757fe5b048b60000160008a73ffffffffffffffffffffffffffffffffffffffff1673ffffffffffffffffffffffffffffffffffffffff1681526020019081526020016000206000828254019250508190555050505b6106ce565b808960000160008873ffffffffffffffffffffffffffffffffffffffff1673ffffffffffffffffffffffffffffffffffffffff168152602001908152602001600020600082825403925050819055505b50505050505050505050565b6000806106e5611864565b915091508060020160009054906101000a900462ffffff1662ffffff168310610743576040517f08c379a000000000000000000000000000000000000000000000000000000000815260040161073a90611dfb565b60405180910390fd5b600081600001600085815260200190815260200160002090508060020160149054906101000a900467ffffffffffffffff1667ffffffffffffffff1642106107c0576040517f08c379a00000000000000000000000000000000000000000000000000000000081526004016107b790611ddb565b60405180910390fd5b60008160000160003373ffffffffffffffffffffffffffffffffffffffff1673ffffffffffffffffffffffffffffffffffffffff16815260200190815260200160002060000160009054906101000a90046bffffffffffffffffffffffff166bffffffffffffffffffffffff16905060008260000160003373ffffffffffffffffffffffffffffffffffffffff1673ffffffffffffffffffffffffffffffffffffffff168152602001908152602001600020600001600c9054906101000a900460ff169050600082116108c8576040517f08c379a00000000000000000000000000000000000000000000000000000000081526004016108bf90611e9b565b60405180910390fd5b8015610923578183600301600c8282829054906101000a90046bffffffffffffffffffffffff160392506101000a8154816bffffffffffffffffffffffff02191690836bffffffffffffffffffffffff160217905550610974565b818360030160008282829054906101000a90046bffffffffffffffffffffffff160392506101000a8154816bffffffffffffffffffffffff02191690836bffffffffffffffffffffffff1602179055505b8260000160003373ffffffffffffffffffffffffffffffffffffffff1673ffffffffffffffffffffffffffffffffffffffff168152602001908152602001600020600080820160006101000a8154906bffffffffffffffffffffffff021916905560008201600c6101000a81549060ff0219169055505060008460010160003373ffffffffffffffffffffffffffffffffffffffff1673ffffffffffffffffffffffffffffffffffffffff168152602001908152602001600020905060008180549050905060005b81811015610a935788838281548110610a5157fe5b90600052602060002090600a91828204019190066003029054906101000a900462ffffff1662ffffff161415610a8657610a93565b8080600101915050610a3c565b6000600183039050818114610b1157838181548110610aae57fe5b90600052602060002090600a91828204019190066003029054906101000a900462ffffff16848381548110610adf57fe5b90600052602060002090600a91828204019190066003026101000a81548162ffffff021916908362ffffff1602179055505b83805480610b1b57fe5b60019003818190600052602060002090600a91828204019190066003026101000a81549062ffffff021916905590553373ffffffffffffffffffffffffffffffffffffffff168a7f9f1f3135d5625fc2500de56ba019d8c41fa224483192466e055e44447121c8208888604051610b93929190611f16565b60405180910390a3600088600201600a9054906101000a900460ff1660ff169050808781610bbd57fe5b048a600201600c8282829054906101000a90046bffffffffffffffffffffffff160392506101000a8154816bffffffffffffffffffffffff02191690836bffffffffffffffffffffffff160217905550808781610c1657fe5b048a60000160003373ffffffffffffffffffffffffffffffffffffffff1673ffffffffffffffffffffffffffffffffffffffff168152602001908152602001600020600082825403925050819055505050505050505050505050565b600080610c7d611864565b91509150610e108160020160049054906101000a900461ffff160261ffff1642018311610cdf576040517f08c379a0000000000000000000000000000000000000000000000000000000008152600401610cd690611e7b565b60405180910390fd5b610e108160020160069054906101000a900461ffff160261ffff1642018310610d3d576040517f08c379a0000000000000000000000000000000000000000000000000000000008152600401610d3490611e1b565b60405180910390fd5b60008260000160003373ffffffffffffffffffffffffffffffffffffffff1673ffffffffffffffffffffffffffffffffffffffff168152602001908152602001600020549050600083600201600c9054906101000a90046bffffffffffffffffffffffff166bffffffffffffffffffffffff1690508260020160039054906101000a900460ff1660ff168181610dcf57fe5b04821015610e12576040517f08c379a0000000000000000000000000000000000000000000000000000000008152600401610e0990611dbb565b60405180910390fd5b600083600201600081819054906101000a900462ffffff168092919060010191906101000a81548162ffffff021916908362ffffff16021790555062ffffff16905060008460000160008381526020019081526020016000209050338160010160006101000a81548173ffffffffffffffffffffffffffffffffffffffff021916908373ffffffffffffffffffffffffffffffffffffffff160217905550878160020160006101000a81548173ffffffffffffffffffffffffffffffffffffffff021916908373ffffffffffffffffffffffffffffffffffffffff160217905550868160020160146101000a81548167ffffffffffffffff021916908367ffffffffffffffff1602179055508381600301600c6101000a8154816bffffffffffffffffffffffff02191690836bffffffffffffffffffffffff1602179055506040518060400160405280856bffffffffffffffffffffffff168152602001600115158152508160000160003373ffffffffffffffffffffffffffffffffffffffff1673ffffffffffffffffffffffffffffffffffffffff16815260200190815260200160002060008201518160000160006101000a8154816bffffffffffffffffffffffff02191690836bffffffffffffffffffffffff160217905550602082015181600001600c6101000a81548160ff0219169083151502179055509050508460010160003373ffffffffffffffffffffffffffffffffffffffff1673ffffffffffffffffffffffffffffffffffffffff1681526020019081526020016000208290806001815401808255809150506001900390600052602060002090600a91828204019190066003029091909190916101000a81548162ffffff021916908362ffffff1602179055503373ffffffffffffffffffffffffffffffffffffffff16827f833b8bad1ff76b718af5adb72da0547533a1fb1ff56639c0b2597d636830b0a78660016040516110e7929190611f16565b60405180910390a35050505050505050565b6000806000611106611864565b915091506000816000016000868152602001908152602001600020905060008160020160149054906101000a900467ffffffffffffffff1667ffffffffffffffff169050600081141561115c5760009450611276565b8043101561116d5760039450611275565b600082600301600c9054906101000a90046bffffffffffffffffffffffff166bffffffffffffffffffffffff16905060008360030160009054906101000a90046bffffffffffffffffffffffff166bffffffffffffffffffffffff168211801561122b57508460020160089054906101000a900460ff1660ff1686600201600c9054906101000a90046bffffffffffffffffffffffff166bffffffffffffffffffffffff168161121957fe5b046bffffffffffffffffffffffff1682115b905083600201601c9054906101000a900460ff161561125d5780156112535760049650611258565b600596505b611272565b801561126c5760019650611271565b600296505b5b50505b5b50505050919050565b60008061128a611864565b915091508060020160009054906101000a900462ffffff1662ffffff1684106112e8576040517f08c379a00000000000000000000000000000000000000000000000000000000081526004016112df90611dfb565b60405180910390fd5b600081600001600086815260200190815260200160002090508060020160149054906101000a900467ffffffffffffffff1667ffffffffffffffff164210611365576040517f08c379a000000000000000000000000000000000000000000000000000000000815260040161135c90611ddb565b60405180910390fd5b60008160000160003373ffffffffffffffffffffffffffffffffffffffff1673ffffffffffffffffffffffffffffffffffffffff16815260200190815260200160002060000160009054906101000a90046bffffffffffffffffffffffff166bffffffffffffffffffffffff1614611412576040517f08c379a000000000000000000000000000000000000000000000000000000000815260040161140990611edb565b60405180910390fd5b60008360000160003373ffffffffffffffffffffffffffffffffffffffff1673ffffffffffffffffffffffffffffffffffffffff16815260200190815260200160002054905084156114b3578082600301600c8282829054906101000a90046bffffffffffffffffffffffff160192506101000a8154816bffffffffffffffffffffffff02191690836bffffffffffffffffffffffff160217905550611504565b808260030160008282829054906101000a90046bffffffffffffffffffffffff160192506101000a8154816bffffffffffffffffffffffff02191690836bffffffffffffffffffffffff1602179055505b6040518060400160405280826bffffffffffffffffffffffff1681526020018615158152508260000160003373ffffffffffffffffffffffffffffffffffffffff1673ffffffffffffffffffffffffffffffffffffffff16815260200190815260200160002060008201518160000160006101000a8154816bffffffffffffffffffffffff02191690836bffffffffffffffffffffffff160217905550602082015181600001600c6101000a81548160ff0219169083151502179055509050508260010160003373ffffffffffffffffffffffffffffffffffffffff1673ffffffffffffffffffffffffffffffffffffffff1681526020019081526020016000208690806001815401808255809150506001900390600052602060002090600a91828204019190066003029091909190916101000a81548162ffffff021916908362ffffff1602179055503373ffffffffffffffffffffffffffffffffffffffff16867f833b8bad1ff76b718af5adb72da0547533a1fb1ff56639c0b2597d636830b0a78388604051611698929190611f16565b60405180910390a3600084600201600c9054906101000a90046bffffffffffffffffffffffff166bffffffffffffffffffffffff1690508460020160009054906101000a90046bffffffffffffffffffffffff166bffffffffffffffffffffffff1681101561183457600084600201600b9054906101000a900460ff1660ff1686600201600c9054906101000a90046bffffffffffffffffffffffff166bffffffffffffffffffffffff168161174a57fe5b046bffffffffffffffffffffffff16905080831115611767578092505b600085600201600a9054906101000a900460ff1660ff16905080848161178957fe5b0487600201600c8282829054906101000a90046bffffffffffffffffffffffff160192506101000a8154816bffffffffffffffffffffffff02191690836bffffffffffffffffffffffff1602179055508084816117e257fe5b048760000160003373ffffffffffffffffffffffffffffffffffffffff1673ffffffffffffffffffffffffffffffffffffffff1681526020019081526020016000206000828254019250508190555050505b50505050505050565b60006118476118ba565b60020160009054906101000a900462ffffff1662ffffff16905090565b60008060007f6ed1e8b58b8677af52e598804adae6eaacd4c419a6334c92069fde3cd6d8affc90508092507ff11e38b1456bc2ebbd0be55bac6674a44df0110b10ef9e7276d89cfc157e304a9050809150509091565b6000807ff11e38b1456bc2ebbd0be55bac6674a44df0110b10ef9e7276d89cfc157e304a90508091505090565b6000813590506118f681612013565b92915050565b60008135905061190b8161202a565b92915050565b60008135905061192081612041565b92915050565b6000806040838503121561193957600080fd5b6000611947858286016118e7565b925050602061195885828601611911565b9150509250929050565b60006020828403121561197457600080fd5b600061198284828501611911565b91505092915050565b6000806040838503121561199e57600080fd5b60006119ac85828601611911565b92505060206119bd858286016118fc565b9150509250929050565b6119d081611f78565b82525050565b60006119e182611f3f565b6119eb8185611f4a565b93506119fb818560208601611fd3565b80840191505092915050565b611a1081611fc1565b82525050565b6000611a23603083611f55565b91507f476f7665726e616e63653a2042616c616e6365206c657373207468616e20707260008301527f6f706f736572207468726573686f6c64000000000000000000000000000000006020830152604082019050919050565b6000611a89601883611f55565b91507f476f7665726e616e63653a20566f74696e6720656e64656400000000000000006000830152602082019050919050565b6000611ac9602683611f55565b91507f476f7665726e616e63653a205f70726f706f73616c496420646f6573206e6f7460008301527f20657869737400000000000000000000000000000000000000000000000000006020830152604082019050919050565b6000611b2f602783611f55565b91507f476f7665726e616e63653a20566f74696e672074696d65206d7573742062652060008301527f73686f72746572000000000000000000000000000000000000000000000000006020830152604082019050919050565b6000611b95602383611f55565b91507f476f7665726e616e63653a2050726f706f73616c20646f6573206e6f7420657860008301527f69737400000000000000000000000000000000000000000000000000000000006020830152604082019050919050565b6000611bfb601f83611f55565b91507f476f7665726e616e63653a20566f74696e67206861736e277420656e646564006000830152602082019050919050565b6000611c3b602683611f55565b91507f476f7665726e616e63653a20566f74696e672074696d65206d7573742062652060008301527f6c6f6e67657200000000000000000000000000000000000000000000000000006020830152604082019050919050565b6000611ca1601883611f55565b91507f476f7665726e616e63653a20446964206e6f7420766f746500000000000000006000830152602082019050919050565b6000611ce1602e83611f55565b91507f476f7665726e616e63653a2050726f706f73616c2068617320616c726561647960008301527f206265656e2065786563757465640000000000000000000000000000000000006020830152604082019050919050565b6000611d47601983611f55565b91507f476f7665726e616e63653a20416c726561647920766f746564000000000000006000830152602082019050919050565b611d8381611fb7565b82525050565b6000611d9582846119d6565b915081905092915050565b6000602082019050611db56000830184611a07565b92915050565b60006020820190508181036000830152611dd481611a16565b9050919050565b60006020820190508181036000830152611df481611a7c565b9050919050565b60006020820190508181036000830152611e1481611abc565b9050919050565b60006020820190508181036000830152611e3481611b22565b9050919050565b60006020820190508181036000830152611e5481611b88565b9050919050565b60006020820190508181036000830152611e7481611bee565b9050919050565b60006020820190508181036000830152611e9481611c2e565b9050919050565b60006020820190508181036000830152611eb481611c94565b9050919050565b60006020820190508181036000830152611ed481611cd4565b9050919050565b60006020820190508181036000830152611ef481611d3a565b9050919050565b6000602082019050611f106000830184611d7a565b92915050565b6000604082019050611f2b6000830185611d7a565b611f3860208301846119c7565b9392505050565b600081519050919050565b600081905092915050565b600082825260208201905092915050565b6000611f7182611f97565b9050919050565b60008115159050919050565b6000819050611f9282612006565b919050565b600073ffffffffffffffffffffffffffffffffffffffff82169050919050565b6000819050919050565b6000611fcc82611f84565b9050919050565b60005b83811015611ff1578082015181840152602081019050611fd6565b83811115612000576000848401525b50505050565b6006811061201057fe5b50565b61201c81611f66565b811461202757600080fd5b50565b61203381611f78565b811461203e57600080fd5b50565b61204a81611fb7565b811461205557600080fd5b5056fea26469706673582212208c29f2d31a8098633333bce019f3d6022a110bacae216e1d229a5edcb9ce1e2b64736f6c63430007000033",
  "immutableReferences": {},
  "source": "// SPDX-License-Identifier: MIT\r\npragma solidity ^0.7.0;\r\npragma experimental ABIEncoderV2;\r\n\r\nimport { IERC20 } from '../interfaces/IERC20.sol';\r\nimport { InternalFunctions } from '../lib/InternalFunctions.sol';\r\n\r\n\r\n\r\ncontract Governance is InternalFunctions {\r\n    \r\n    event Vote(uint indexed _proposalId, address indexed _voter, uint _votes, bool _support);\r\n    event UnVote(uint indexed _proposalId, address indexed _voter, uint _votes, bool _support);  \r\n    \r\n    function mint(address _to, uint96 _value) internal {\r\n        ERC20TokenStorage storage ets = erc20TokenStorage();        \r\n        ets.totalSupply += _value;\r\n        ets.balances[_to] += _value;\r\n    }\r\n\r\n    function proposalCount() external view returns (uint) {\r\n        return governanceStorage().proposalCount;\r\n    }\r\n\r\n    function propose(address _proposalContract, uint _endTime) external {\r\n        (ERC20TokenStorage storage ets,\r\n        GovernanceStorage storage gs) = governanceTokenStorage();        \r\n        require(_endTime > block.timestamp + (gs.minimumVotingTime * 3600), 'Governance: Voting time must be longer');\r\n        require(_endTime < block.timestamp + (gs.maximumVotingTime * 3600), 'Governance: Voting time must be shorter');\r\n       \r\n        uint balance = ets.balances[msg.sender];\r\n        uint totalSupply = ets.totalSupply;\r\n        // proposalThreshold is 1 percent of totalSupply\r\n        require(balance >= (totalSupply / gs.proposalThresholdDivisor), 'Governance: Balance less than proposer threshold');\r\n        uint proposalId = gs.proposalCount++;\r\n        Proposal storage proposal = gs.proposals[proposalId];\r\n        proposal.proposer = msg.sender;\r\n        proposal.proposalContract = _proposalContract;\r\n        proposal.endTime = uint64(_endTime);\r\n        // adding vote\r\n        proposal.forVotes = uint96(balance);\r\n        proposal.voted[msg.sender] = Voted(uint96(balance), true);\r\n        gs.votedProposalIds[msg.sender].push(uint24(proposalId));\r\n        emit Vote(proposalId, msg.sender, balance, true);\r\n    }\r\n\r\n    function executeProposal(uint _proposalId) external {\r\n        (ERC20TokenStorage storage ets,\r\n        GovernanceStorage storage gs) = governanceTokenStorage();\r\n        Proposal storage proposal = gs.proposals[_proposalId];\r\n        address proposer = proposal.proposer;\r\n        require(proposer != address(0), 'Governance: Proposal does not exist');\r\n        require(block.timestamp > proposal.endTime, 'Governance: Voting hasn\\'t ended');        \r\n        require(proposal.executed != true, 'Governance: Proposal has already been executed');\r\n        proposal.executed = true;        \r\n        uint totalSupply = ets.totalSupply;\r\n        uint forVotes = proposal.forVotes;\r\n        uint againstVotes = proposal.againstVotes;\r\n        bool proposalSuccess = forVotes > againstVotes && forVotes > ets.totalSupply / gs.quorumDivisor;\r\n        uint votes = proposal.voted[proposer].votes;        \r\n        if(proposalSuccess) {\r\n            (proposalSuccess,) = proposal.proposalContract.delegatecall(abi.encodeWithSignature('execute', _proposalId));\r\n        }\r\n        if(proposalSuccess) {\r\n            if(totalSupply < ets.totalSupplyCap) {\r\n                uint fractionOfTotalSupply = totalSupply / gs.voteAwardCapDivisor;\r\n                if(votes > fractionOfTotalSupply) {\r\n                    votes = fractionOfTotalSupply;\r\n                }\r\n                // 5 percent reward\r\n                uint proposerAwardDivisor = gs.proposerAwardDivisor;\r\n                ets.totalSupply += uint96(votes / proposerAwardDivisor);\r\n                ets.balances[proposer] += votes / proposerAwardDivisor;\r\n            }\r\n        }\r\n        else {\r\n            ets.balances[proposer] -= votes;\r\n        }\r\n    }\r\n\r\n    enum ProposalStatus { \r\n        NoProposal,\r\n        PassedAndReadyForExecution, \r\n        RejectedAndReadyForExecution,\r\n        VotePending,\r\n        Passed,  \r\n        Rejected        \r\n    }\r\n\r\n    function proposalStatus(uint _proposalId) external view returns (ProposalStatus status) {\r\n        (ERC20TokenStorage storage ets,\r\n        GovernanceStorage storage gs) = governanceTokenStorage();\r\n        Proposal storage proposal = gs.proposals[_proposalId];\r\n        uint endTime = proposal.endTime;\r\n        if(endTime == 0) {\r\n            status = ProposalStatus.NoProposal;\r\n        }\r\n        else if(block.number < endTime) {\r\n            status = ProposalStatus.VotePending;\r\n        }\r\n        else {\r\n            uint forVotes = proposal.forVotes;\r\n            bool passed = forVotes > proposal.againstVotes && forVotes > ets.totalSupply / gs.quorumDivisor;\r\n            if(proposal.executed) {\r\n                if(passed) {\r\n                    status = ProposalStatus.Passed;\r\n                }\r\n                else {\r\n                    status = ProposalStatus.Rejected;\r\n                }\r\n            }\r\n            else {\r\n                if(passed) {\r\n                    status = ProposalStatus.PassedAndReadyForExecution;\r\n                }\r\n                else {\r\n                    status = ProposalStatus.RejectedAndReadyForExecution;\r\n                }\r\n            }\r\n        }\r\n    }\r\n\r\n    function vote(uint _proposalId, bool _support) external {\r\n        (ERC20TokenStorage storage ets,\r\n        GovernanceStorage storage gs) = governanceTokenStorage();\r\n        require(_proposalId < gs.proposalCount, 'Governance: _proposalId does not exist');\r\n        Proposal storage proposal = gs.proposals[_proposalId];\r\n        require(block.timestamp < proposal.endTime, 'Governance: Voting ended');\r\n        require(proposal.voted[msg.sender].votes == 0, 'Governance: Already voted');        \r\n        uint balance = ets.balances[msg.sender];\r\n        if(_support) {\r\n            proposal.forVotes += uint96(balance);\r\n        }\r\n        else {\r\n            proposal.againstVotes += uint96(balance);\r\n        }\r\n        proposal.voted[msg.sender] = Voted(uint96(balance), _support);\r\n        gs.votedProposalIds[msg.sender].push(uint24(_proposalId));\r\n        emit Vote(_proposalId, msg.sender, balance, _support);        \r\n        uint totalSupply = ets.totalSupply;\r\n        if(totalSupply < ets.totalSupplyCap) {\r\n            // Reward voter with increase in token            \r\n            uint fractionOfTotalSupply = ets.totalSupply / gs.voteAwardCapDivisor;\r\n            if(balance > fractionOfTotalSupply) {\r\n                balance = fractionOfTotalSupply;\r\n            }\r\n            uint voterAwardDivisor = gs.voterAwardDivisor;\r\n            ets.totalSupply += uint96(balance / voterAwardDivisor);\r\n            ets.balances[msg.sender] += balance / voterAwardDivisor;\r\n        }\r\n    }\r\n\r\n    function unvote(uint _proposalId) external {\r\n        (ERC20TokenStorage storage ets,\r\n        GovernanceStorage storage gs) = governanceTokenStorage();\r\n        require(_proposalId < gs.proposalCount, 'Governance: _proposalId does not exist');\r\n        Proposal storage proposal = gs.proposals[_proposalId];\r\n        require(block.timestamp < proposal.endTime, 'Governance: Voting ended');        \r\n        uint votes = proposal.voted[msg.sender].votes;\r\n        bool support = proposal.voted[msg.sender].support;\r\n        require(votes > 0, 'Governance: Did not vote');                \r\n        if(support) {\r\n            proposal.forVotes -= uint96(votes);\r\n        }\r\n        else {\r\n            proposal.againstVotes -= uint96(votes);\r\n        }\r\n        delete proposal.voted[msg.sender];\r\n        uint24[] storage proposalIds = gs.votedProposalIds[msg.sender];\r\n        uint length = proposalIds.length;\r\n        uint index;\r\n        for(; index < length; index++) {\r\n            if(uint(proposalIds[index]) == _proposalId) {\r\n                break;\r\n            }\r\n        }\r\n        uint lastIndex = length-1;\r\n        if(lastIndex != index) {\r\n            proposalIds[index] = proposalIds[lastIndex];    \r\n        }\r\n        proposalIds.pop();\r\n        emit UnVote(_proposalId, msg.sender, votes, support);\r\n        // Remove voter reward\r\n        uint voterAwardDivisor = gs.voterAwardDivisor;\r\n        ets.totalSupply -= uint96(votes / voterAwardDivisor);\r\n        ets.balances[msg.sender] -= votes / voterAwardDivisor;\r\n    }\r\n\r\n}",
  "sourcePath": "C:\\Users\\mudge\\projects\\governance-token-diamond\\contracts\\facets\\Governance.sol",
  "compiler": {
    "name": "solc",
    "version": "0.7.0+commit.9e61f92b.Emscripten.clang"
  },
  "schemaVersion": "3.1.0",
  "updatedAt": "2020-08-07T04:57:34.525Z",
  "devdoc": {
    "kind": "dev",
    "methods": {},
    "version": 1
  },
  "userdoc": {
    "kind": "user",
    "methods": {},
    "version": 1
  }
}