{
  "contractName": "Governance",
  "abi": [
    {
      "anonymous": false,
      "inputs": [
        {
          "indexed": false,
          "internalType": "bytes[]",
          "name": "_diamondCut",
          "type": "bytes[]"
        }
      ],
      "name": "DiamondCut",
      "type": "event"
    },
    {
      "anonymous": false,
      "inputs": [
        {
          "indexed": false,
          "internalType": "uint256",
          "name": "_proposalId",
          "type": "uint256"
        },
        {
          "indexed": false,
          "internalType": "bytes",
          "name": "_error",
          "type": "bytes"
        }
      ],
      "name": "ProposalExecutionFailed",
      "type": "event"
    },
    {
      "anonymous": false,
      "inputs": [
        {
          "indexed": false,
          "internalType": "uint256",
          "name": "_proposalId",
          "type": "uint256"
        },
        {
          "indexed": false,
          "internalType": "bool",
          "name": "_passed",
          "type": "bool"
        }
      ],
      "name": "ProposalExecutionSuccessful",
      "type": "event"
    },
    {
      "anonymous": false,
      "inputs": [
        {
          "indexed": false,
          "internalType": "address",
          "name": "_proposer",
          "type": "address"
        },
        {
          "indexed": false,
          "internalType": "address",
          "name": "_proposalContract",
          "type": "address"
        },
        {
          "indexed": false,
          "internalType": "uint256",
          "name": "_endTime",
          "type": "uint256"
        }
      ],
      "name": "Propose",
      "type": "event"
    },
    {
      "anonymous": false,
      "inputs": [
        {
          "indexed": true,
          "internalType": "uint256",
          "name": "_proposalId",
          "type": "uint256"
        },
        {
          "indexed": true,
          "internalType": "address",
          "name": "_voter",
          "type": "address"
        },
        {
          "indexed": false,
          "internalType": "uint256",
          "name": "_votes",
          "type": "uint256"
        },
        {
          "indexed": false,
          "internalType": "bool",
          "name": "_support",
          "type": "bool"
        }
      ],
      "name": "UnVote",
      "type": "event"
    },
    {
      "anonymous": false,
      "inputs": [
        {
          "indexed": true,
          "internalType": "uint256",
          "name": "_proposalId",
          "type": "uint256"
        },
        {
          "indexed": true,
          "internalType": "address",
          "name": "_voter",
          "type": "address"
        },
        {
          "indexed": false,
          "internalType": "uint256",
          "name": "_votes",
          "type": "uint256"
        },
        {
          "indexed": false,
          "internalType": "bool",
          "name": "_support",
          "type": "bool"
        }
      ],
      "name": "Vote",
      "type": "event"
    },
    {
      "inputs": [],
      "name": "proposalCount",
      "outputs": [
        {
          "internalType": "uint256",
          "name": "",
          "type": "uint256"
        }
      ],
      "stateMutability": "view",
      "type": "function"
    },
    {
      "inputs": [
        {
          "internalType": "address",
          "name": "_proposalContract",
          "type": "address"
        },
        {
          "internalType": "uint256",
          "name": "_endTime",
          "type": "uint256"
        }
      ],
      "name": "propose",
      "outputs": [],
      "stateMutability": "nonpayable",
      "type": "function"
    },
    {
      "inputs": [
        {
          "internalType": "uint256",
          "name": "_proposalId",
          "type": "uint256"
        }
      ],
      "name": "executeProposal",
      "outputs": [],
      "stateMutability": "nonpayable",
      "type": "function"
    },
    {
      "inputs": [
        {
          "internalType": "uint256",
          "name": "_proposalId",
          "type": "uint256"
        }
      ],
      "name": "proposalStatus",
      "outputs": [
        {
          "internalType": "enum Governance.ProposalStatus",
          "name": "status",
          "type": "uint8"
        }
      ],
      "stateMutability": "view",
      "type": "function"
    },
    {
      "inputs": [
        {
          "internalType": "uint256",
          "name": "_proposalId",
          "type": "uint256"
        }
      ],
      "name": "proposal",
      "outputs": [
        {
          "components": [
            {
              "internalType": "address",
              "name": "proposalContract",
              "type": "address"
            },
            {
              "internalType": "address",
              "name": "proposer",
              "type": "address"
            },
            {
              "internalType": "uint64",
              "name": "endTime",
              "type": "uint64"
            },
            {
              "internalType": "uint96",
              "name": "againstVotes",
              "type": "uint96"
            },
            {
              "internalType": "uint96",
              "name": "forVotes",
              "type": "uint96"
            },
            {
              "internalType": "enum Governance.ProposalStatus",
              "name": "status",
              "type": "uint8"
            }
          ],
          "internalType": "struct Governance.RetrievedProposal",
          "name": "retrievedProposal",
          "type": "tuple"
        }
      ],
      "stateMutability": "view",
      "type": "function"
    },
    {
      "inputs": [
        {
          "internalType": "uint256",
          "name": "_proposalId",
          "type": "uint256"
        },
        {
          "internalType": "bool",
          "name": "_support",
          "type": "bool"
        }
      ],
      "name": "vote",
      "outputs": [],
      "stateMutability": "nonpayable",
      "type": "function"
    },
    {
      "inputs": [
        {
          "internalType": "uint256",
          "name": "_proposalId",
          "type": "uint256"
        }
      ],
      "name": "unvote",
      "outputs": [],
      "stateMutability": "nonpayable",
      "type": "function"
    }
  ],
  "bytecode": "0x608060405234801561001057600080fd5b50612814806100206000396000f3fe608060405234801561001057600080fd5b506004361061007d5760003560e01c8063589de5df1161005b578063589de5df146100ea57806374c260cf14610106578063c9d27afe14610136578063da35c664146101525761007d565b80630d61b5191461008257806330326c171461009e57806351ec4285146100ce575b600080fd5b61009c60048036038101906100979190611e53565b610170565b005b6100b860048036038101906100b39190611e53565b6108da565b6040516100c591906125e8565b60405180910390f35b6100e860048036038101906100e39190611e53565b610a3a565b005b61010460048036038101906100ff9190611e17565b611065565b005b610120600480360381019061011b9190611e53565b611536565b60405161012d919061244d565b60405180910390f35b610150600480360381019061014b9190611e7c565b6116dd565b005b61015a611c9b565b6040516101679190612603565b60405180910390f35b60008061017b611cc2565b915091506000816000016000858152602001908152602001600020905060008160020160009054906101000a900473ffffffffffffffffffffffffffffffffffffffff169050600073ffffffffffffffffffffffffffffffffffffffff168173ffffffffffffffffffffffffffffffffffffffff161415610231576040517f08c379a000000000000000000000000000000000000000000000000000000000815260040161022890612508565b60405180910390fd5b8160020160149054906101000a900467ffffffffffffffff1667ffffffffffffffff164211610295576040517f08c379a000000000000000000000000000000000000000000000000000000000815260040161028c90612528565b60405180910390fd5b6001151582600201601c9054906101000a900460ff16151514156102ee576040517f08c379a00000000000000000000000000000000000000000000000000000000081526004016102e5906125a8565b60405180910390fd5b600182600201601c6101000a81548160ff021916908315150217905550600084600201600c9054906101000a90046bffffffffffffffffffffffff166bffffffffffffffffffffffff169050600083600301600c9054906101000a90046bffffffffffffffffffffffff166bffffffffffffffffffffffff16905060008460030160009054906101000a90046bffffffffffffffffffffffff166bffffffffffffffffffffffff169050600081831180156103fd57508660020160089054906101000a900460ff1660ff1688600201600c9054906101000a90046bffffffffffffffffffffffff166bffffffffffffffffffffffff16816103eb57fe5b046bffffffffffffffffffffffff1683115b905060008660000160008773ffffffffffffffffffffffffffffffffffffffff1673ffffffffffffffffffffffffffffffffffffffff16815260200190815260200160002060000160009054906101000a90046bffffffffffffffffffffffff166bffffffffffffffffffffffff16905081156108445760008760010160009054906101000a900473ffffffffffffffffffffffffffffffffffffffff1690506000813b9050600081111561079457600060608373ffffffffffffffffffffffffffffffffffffffff168e6040516024016104d89190612603565b6040516020818303038152906040527fc640060c000000000000000000000000000000000000000000000000000000007bffffffffffffffffffffffffffffffffffffffffffffffffffffffff19166020820180517bffffffffffffffffffffffffffffffffffffffffffffffffffffffff83818316178352505050506040516105629190612436565b600060405180830381855af49150503d806000811461059d576040519150601f19603f3d011682016040523d82523d6000602084013e6105a2565b606091505b50915091508115610719578c60020160009054906101000a90046bffffffffffffffffffffffff166bffffffffffffffffffffffff168910156106da5760008c600201600b9054906101000a900460ff1660ff168a816105fe57fe5b0490508086111561060d578095505b60008d60020160099054906101000a900460ff1660ff16905080878161062f57fe5b048f600201600c8282829054906101000a90046bffffffffffffffffffffffff160192506101000a8154816bffffffffffffffffffffffff02191690836bffffffffffffffffffffffff16021790555080878161068857fe5b048f60000160008e73ffffffffffffffffffffffffffffffffffffffff1673ffffffffffffffffffffffffffffffffffffffff1681526020019081526020016000206000828254019250508190555050505b7f989b5c18710bf76d31c802ce40e50b6ab61dd73dedbe4b2bf6808d35a517d2d18e600160405161070c92919061261e565b60405180910390a161078d565b60018b600201601d6101000a81548160ff02191690831515021790555060008b600201601c6101000a81548160ff0219169083151502179055507f0418cb6608187ab509202d493686813fe6cad355c4250c11655e139d9b96d2138e82604051610784929190612647565b60405180910390a15b505061083d565b600189600201601d6101000a81548160ff021916908315150217905550600089600201601c6101000a81548160ff0219169083151502179055507f0418cb6608187ab509202d493686813fe6cad355c4250c11655e139d9b96d2138c6040518060400160405280601b81526020017f50726f706f73616c20636f6e74726163742073697a6520697320300000000000815250604051610834929190612647565b60405180910390a15b50506108ce565b808960000160008873ffffffffffffffffffffffffffffffffffffffff1673ffffffffffffffffffffffffffffffffffffffff168152602001908152602001600020600082825403925050819055507f989b5c18710bf76d31c802ce40e50b6ab61dd73dedbe4b2bf6808d35a517d2d18a60006040516108c592919061261e565b60405180910390a15b50505050505050505050565b6108e2611d45565b60006108ec611d18565b9050600081600001600085815260200190815260200160002090506040518060c001604052808260010160009054906101000a900473ffffffffffffffffffffffffffffffffffffffff1673ffffffffffffffffffffffffffffffffffffffff1681526020018260020160009054906101000a900473ffffffffffffffffffffffffffffffffffffffff1673ffffffffffffffffffffffffffffffffffffffff1681526020018260020160149054906101000a900467ffffffffffffffff1667ffffffffffffffff1681526020018260030160009054906101000a90046bffffffffffffffffffffffff166bffffffffffffffffffffffff16815260200182600301600c9054906101000a90046bffffffffffffffffffffffff166bffffffffffffffffffffffff168152602001610a2386611536565b6006811115610a2e57fe5b81525092505050919050565b600080610a45611cc2565b915091508060020160009054906101000a900462ffffff1662ffffff168310610aa3576040517f08c379a0000000000000000000000000000000000000000000000000000000008152600401610a9a906124c8565b60405180910390fd5b600081600001600085815260200190815260200160002090508060020160149054906101000a900467ffffffffffffffff1667ffffffffffffffff164210610b20576040517f08c379a0000000000000000000000000000000000000000000000000000000008152600401610b1790612488565b60405180910390fd5b3373ffffffffffffffffffffffffffffffffffffffff168160020160009054906101000a900473ffffffffffffffffffffffffffffffffffffffff1673ffffffffffffffffffffffffffffffffffffffff161415610bb3576040517f08c379a0000000000000000000000000000000000000000000000000000000008152600401610baa90612588565b60405180910390fd5b60008160000160003373ffffffffffffffffffffffffffffffffffffffff1673ffffffffffffffffffffffffffffffffffffffff16815260200190815260200160002060000160009054906101000a90046bffffffffffffffffffffffff166bffffffffffffffffffffffff16905060008260000160003373ffffffffffffffffffffffffffffffffffffffff1673ffffffffffffffffffffffffffffffffffffffff168152602001908152602001600020600001600c9054906101000a900460ff16905060008211610cbb576040517f08c379a0000000000000000000000000000000000000000000000000000000008152600401610cb290612568565b60405180910390fd5b8015610d16578183600301600c8282829054906101000a90046bffffffffffffffffffffffff160392506101000a8154816bffffffffffffffffffffffff02191690836bffffffffffffffffffffffff160217905550610d67565b818360030160008282829054906101000a90046bffffffffffffffffffffffff160392506101000a8154816bffffffffffffffffffffffff02191690836bffffffffffffffffffffffff1602179055505b8260000160003373ffffffffffffffffffffffffffffffffffffffff1673ffffffffffffffffffffffffffffffffffffffff168152602001908152602001600020600080820160006101000a8154906bffffffffffffffffffffffff021916905560008201600c6101000a81549060ff0219169055505060008460010160003373ffffffffffffffffffffffffffffffffffffffff1673ffffffffffffffffffffffffffffffffffffffff168152602001908152602001600020905060008180549050905060005b81811015610e865788838281548110610e4457fe5b90600052602060002090600a91828204019190066003029054906101000a900462ffffff1662ffffff161415610e7957610e86565b8080600101915050610e2f565b6000600183039050818114610f0457838181548110610ea157fe5b90600052602060002090600a91828204019190066003029054906101000a900462ffffff16848381548110610ed257fe5b90600052602060002090600a91828204019190066003026101000a81548162ffffff021916908362ffffff1602179055505b83805480610f0e57fe5b60019003818190600052602060002090600a91828204019190066003026101000a81549062ffffff021916905590553373ffffffffffffffffffffffffffffffffffffffff168a7f9f1f3135d5625fc2500de56ba019d8c41fa224483192466e055e44447121c8208888604051610f8692919061261e565b60405180910390a3600088600201600a9054906101000a900460ff1660ff169050808781610fb057fe5b048a600201600c8282829054906101000a90046bffffffffffffffffffffffff160392506101000a8154816bffffffffffffffffffffffff02191690836bffffffffffffffffffffffff16021790555080878161100957fe5b048a60000160003373ffffffffffffffffffffffffffffffffffffffff1673ffffffffffffffffffffffffffffffffffffffff168152602001908152602001600020600082825403925050819055505050505050505050505050565b6000823b9050600081116110ae576040517f08c379a00000000000000000000000000000000000000000000000000000000081526004016110a5906124a8565b60405180910390fd5b6000806110b9611cc2565b91509150610e108160020160049054906101000a900461ffff160261ffff164201841161111b576040517f08c379a000000000000000000000000000000000000000000000000000000000815260040161111290612548565b60405180910390fd5b610e108160020160069054906101000a900461ffff160261ffff1642018410611179576040517f08c379a0000000000000000000000000000000000000000000000000000000008152600401611170906124e8565b60405180910390fd5b60008260000160003373ffffffffffffffffffffffffffffffffffffffff1673ffffffffffffffffffffffffffffffffffffffff168152602001908152602001600020549050600083600201600c9054906101000a90046bffffffffffffffffffffffff166bffffffffffffffffffffffff1690508260020160039054906101000a900460ff1660ff16818161120b57fe5b0482101561124e576040517f08c379a000000000000000000000000000000000000000000000000000000000815260040161124590612468565b60405180910390fd5b600083600201600081819054906101000a900462ffffff168092919060010191906101000a81548162ffffff021916908362ffffff16021790555062ffffff16905060008460000160008381526020019081526020016000209050338160020160006101000a81548173ffffffffffffffffffffffffffffffffffffffff021916908373ffffffffffffffffffffffffffffffffffffffff160217905550888160010160006101000a81548173ffffffffffffffffffffffffffffffffffffffff021916908373ffffffffffffffffffffffffffffffffffffffff160217905550878160020160146101000a81548167ffffffffffffffff021916908367ffffffffffffffff1602179055508381600301600c6101000a8154816bffffffffffffffffffffffff02191690836bffffffffffffffffffffffff1602179055506040518060400160405280856bffffffffffffffffffffffff168152602001600115158152508160000160003373ffffffffffffffffffffffffffffffffffffffff1673ffffffffffffffffffffffffffffffffffffffff16815260200190815260200160002060008201518160000160006101000a8154816bffffffffffffffffffffffff02191690836bffffffffffffffffffffffff160217905550602082015181600001600c6101000a81548160ff0219169083151502179055509050508460010160003373ffffffffffffffffffffffffffffffffffffffff1673ffffffffffffffffffffffffffffffffffffffff1681526020019081526020016000208290806001815401808255809150506001900390600052602060002090600a91828204019190066003029091909190916101000a81548162ffffff021916908362ffffff1602179055503373ffffffffffffffffffffffffffffffffffffffff16827f833b8bad1ff76b718af5adb72da0547533a1fb1ff56639c0b2597d636830b0a786600160405161152392919061261e565b60405180910390a3505050505050505050565b6000806000611543611cc2565b915091506000816000016000868152602001908152602001600020905060008160020160149054906101000a900467ffffffffffffffff1667ffffffffffffffff169050600081141561159957600094506116d4565b804310156115aa57600494506116d3565b81600201601d9054906101000a900460ff16156115ca57600394506116d2565b600082600301600c9054906101000a90046bffffffffffffffffffffffff166bffffffffffffffffffffffff16905060008360030160009054906101000a90046bffffffffffffffffffffffff166bffffffffffffffffffffffff168211801561168857508460020160089054906101000a900460ff1660ff1686600201600c9054906101000a90046bffffffffffffffffffffffff166bffffffffffffffffffffffff168161167657fe5b046bffffffffffffffffffffffff1682115b905083600201601c9054906101000a900460ff16156116ba5780156116b057600596506116b5565b600696505b6116cf565b80156116c957600196506116ce565b600296505b5b50505b5b5b50505050919050565b6000806116e8611cc2565b915091508060020160009054906101000a900462ffffff1662ffffff168410611746576040517f08c379a000000000000000000000000000000000000000000000000000000000815260040161173d906124c8565b60405180910390fd5b600081600001600086815260200190815260200160002090508060020160149054906101000a900467ffffffffffffffff1667ffffffffffffffff1642106117c3576040517f08c379a00000000000000000000000000000000000000000000000000000000081526004016117ba90612488565b60405180910390fd5b60008160000160003373ffffffffffffffffffffffffffffffffffffffff1673ffffffffffffffffffffffffffffffffffffffff16815260200190815260200160002060000160009054906101000a90046bffffffffffffffffffffffff166bffffffffffffffffffffffff1614611870576040517f08c379a0000000000000000000000000000000000000000000000000000000008152600401611867906125c8565b60405180910390fd5b60008360000160003373ffffffffffffffffffffffffffffffffffffffff1673ffffffffffffffffffffffffffffffffffffffff1681526020019081526020016000205490508415611911578082600301600c8282829054906101000a90046bffffffffffffffffffffffff160192506101000a8154816bffffffffffffffffffffffff02191690836bffffffffffffffffffffffff160217905550611962565b808260030160008282829054906101000a90046bffffffffffffffffffffffff160192506101000a8154816bffffffffffffffffffffffff02191690836bffffffffffffffffffffffff1602179055505b6040518060400160405280826bffffffffffffffffffffffff1681526020018615158152508260000160003373ffffffffffffffffffffffffffffffffffffffff1673ffffffffffffffffffffffffffffffffffffffff16815260200190815260200160002060008201518160000160006101000a8154816bffffffffffffffffffffffff02191690836bffffffffffffffffffffffff160217905550602082015181600001600c6101000a81548160ff0219169083151502179055509050508260010160003373ffffffffffffffffffffffffffffffffffffffff1673ffffffffffffffffffffffffffffffffffffffff1681526020019081526020016000208690806001815401808255809150506001900390600052602060002090600a91828204019190066003029091909190916101000a81548162ffffff021916908362ffffff1602179055503373ffffffffffffffffffffffffffffffffffffffff16867f833b8bad1ff76b718af5adb72da0547533a1fb1ff56639c0b2597d636830b0a78388604051611af692919061261e565b60405180910390a3600084600201600c9054906101000a90046bffffffffffffffffffffffff166bffffffffffffffffffffffff1690508460020160009054906101000a90046bffffffffffffffffffffffff166bffffffffffffffffffffffff16811015611c9257600084600201600b9054906101000a900460ff1660ff1686600201600c9054906101000a90046bffffffffffffffffffffffff166bffffffffffffffffffffffff1681611ba857fe5b046bffffffffffffffffffffffff16905080831115611bc5578092505b600085600201600a9054906101000a900460ff1660ff169050808481611be757fe5b0487600201600c8282829054906101000a90046bffffffffffffffffffffffff160192506101000a8154816bffffffffffffffffffffffff02191690836bffffffffffffffffffffffff160217905550808481611c4057fe5b048760000160003373ffffffffffffffffffffffffffffffffffffffff1673ffffffffffffffffffffffffffffffffffffffff1681526020019081526020016000206000828254019250508190555050505b50505050505050565b6000611ca5611d18565b60020160009054906101000a900462ffffff1662ffffff16905090565b60008060007f6ed1e8b58b8677af52e598804adae6eaacd4c419a6334c92069fde3cd6d8affc90508092507ff11e38b1456bc2ebbd0be55bac6674a44df0110b10ef9e7276d89cfc157e304a9050809150509091565b6000807ff11e38b1456bc2ebbd0be55bac6674a44df0110b10ef9e7276d89cfc157e304a90508091505090565b6040518060c00160405280600073ffffffffffffffffffffffffffffffffffffffff168152602001600073ffffffffffffffffffffffffffffffffffffffff168152602001600067ffffffffffffffff16815260200160006bffffffffffffffffffffffff16815260200160006bffffffffffffffffffffffff16815260200160006006811115611dd257fe5b81525090565b600081359050611de781612799565b92915050565b600081359050611dfc816127b0565b92915050565b600081359050611e11816127c7565b92915050565b60008060408385031215611e2a57600080fd5b6000611e3885828601611dd8565b9250506020611e4985828601611e02565b9150509250929050565b600060208284031215611e6557600080fd5b6000611e7384828501611e02565b91505092915050565b60008060408385031215611e8f57600080fd5b6000611e9d85828601611e02565b9250506020611eae85828601611ded565b9150509250929050565b611ec1816126af565b82525050565b611ed0816126c1565b82525050565b6000611ee182612677565b611eeb8185612682565b9350611efb818560208601612748565b611f048161277b565b840191505092915050565b6000611f1a82612677565b611f248185612693565b9350611f34818560208601612748565b80840191505092915050565b611f4981612736565b82525050565b611f5881612736565b82525050565b6000611f6b60308361269e565b91507f476f7665726e616e63653a2042616c616e6365206c657373207468616e20707260008301527f6f706f736572207468726573686f6c64000000000000000000000000000000006020830152604082019050919050565b6000611fd160188361269e565b91507f476f7665726e616e63653a20566f74696e6720656e64656400000000000000006000830152602082019050919050565b600061201160268361269e565b91507f476f7665726e616e63653a2050726f706f73656420636f6e747261637420697360008301527f20656d70747900000000000000000000000000000000000000000000000000006020830152604082019050919050565b600061207760268361269e565b91507f476f7665726e616e63653a205f70726f706f73616c496420646f6573206e6f7460008301527f20657869737400000000000000000000000000000000000000000000000000006020830152604082019050919050565b60006120dd60278361269e565b91507f476f7665726e616e63653a20566f74696e672074696d65206d7573742062652060008301527f73686f72746572000000000000000000000000000000000000000000000000006020830152604082019050919050565b600061214360238361269e565b91507f476f7665726e616e63653a2050726f706f73616c20646f6573206e6f7420657860008301527f69737400000000000000000000000000000000000000000000000000000000006020830152604082019050919050565b60006121a9601f8361269e565b91507f476f7665726e616e63653a20566f74696e67206861736e277420656e646564006000830152602082019050919050565b60006121e960268361269e565b91507f476f7665726e616e63653a20566f74696e672074696d65206d7573742062652060008301527f6c6f6e67657200000000000000000000000000000000000000000000000000006020830152604082019050919050565b600061224f60188361269e565b91507f476f7665726e616e63653a20446964206e6f7420766f746500000000000000006000830152602082019050919050565b600061228f602a8361269e565b91507f476f7665726e616e63653a2043616e277420756e766f746520796f7572206f7760008301527f6e2070726f706f73616c000000000000000000000000000000000000000000006020830152604082019050919050565b60006122f5602e8361269e565b91507f476f7665726e616e63653a2050726f706f73616c2068617320616c726561647960008301527f206265656e2065786563757465640000000000000000000000000000000000006020830152604082019050919050565b600061235b60198361269e565b91507f476f7665726e616e63653a20416c726561647920766f746564000000000000006000830152602082019050919050565b60c0820160008201516123a46000850182611eb8565b5060208201516123b76020850182611eb8565b5060408201516123ca6040850182612418565b5060608201516123dd6060850182612427565b5060808201516123f06080850182612427565b5060a082015161240360a0850182611f40565b50505050565b61241281612700565b82525050565b6124218161270a565b82525050565b6124308161271e565b82525050565b60006124428284611f0f565b915081905092915050565b60006020820190506124626000830184611f4f565b92915050565b6000602082019050818103600083015261248181611f5e565b9050919050565b600060208201905081810360008301526124a181611fc4565b9050919050565b600060208201905081810360008301526124c181612004565b9050919050565b600060208201905081810360008301526124e18161206a565b9050919050565b60006020820190508181036000830152612501816120d0565b9050919050565b6000602082019050818103600083015261252181612136565b9050919050565b600060208201905081810360008301526125418161219c565b9050919050565b60006020820190508181036000830152612561816121dc565b9050919050565b6000602082019050818103600083015261258181612242565b9050919050565b600060208201905081810360008301526125a181612282565b9050919050565b600060208201905081810360008301526125c1816122e8565b9050919050565b600060208201905081810360008301526125e18161234e565b9050919050565b600060c0820190506125fd600083018461238e565b92915050565b60006020820190506126186000830184612409565b92915050565b60006040820190506126336000830185612409565b6126406020830184611ec7565b9392505050565b600060408201905061265c6000830185612409565b818103602083015261266e8184611ed6565b90509392505050565b600081519050919050565b600082825260208201905092915050565b600081905092915050565b600082825260208201905092915050565b60006126ba826126e0565b9050919050565b60008115159050919050565b60008190506126db8261278c565b919050565b600073ffffffffffffffffffffffffffffffffffffffff82169050919050565b6000819050919050565b600067ffffffffffffffff82169050919050565b60006bffffffffffffffffffffffff82169050919050565b6000612741826126cd565b9050919050565b60005b8381101561276657808201518184015260208101905061274b565b83811115612775576000848401525b50505050565b6000601f19601f8301169050919050565b6007811061279657fe5b50565b6127a2816126af565b81146127ad57600080fd5b50565b6127b9816126c1565b81146127c457600080fd5b50565b6127d081612700565b81146127db57600080fd5b5056fea2646970667358221220269a573b9a9f4a65c19ac62ba8885233e0e56944a95a144aa50da40851648db364736f6c63430007000033",
  "immutableReferences": {},
  "source": "// SPDX-License-Identifier: MIT\r\npragma solidity ^0.7.0;\r\npragma experimental ABIEncoderV2;\r\n\r\nimport { IERC20 } from '../interfaces/IERC20.sol';\r\nimport { InternalFunctions } from '../lib/InternalFunctions.sol';\r\n\r\n\r\n\r\ncontract Governance is InternalFunctions {\r\n    \r\n    event Propose(address _proposer, address _proposalContract, uint _endTime);\r\n    event Vote(uint indexed _proposalId, address indexed _voter, uint _votes, bool _support);\r\n    event UnVote(uint indexed _proposalId, address indexed _voter, uint _votes, bool _support);     \r\n    event ProposalExecutionSuccessful(uint _proposalId, bool _passed);\r\n    event ProposalExecutionFailed(uint _proposalId, bytes _error);\r\n    \r\n    function mint(address _to, uint96 _value) internal {\r\n        ERC20TokenStorage storage ets = erc20TokenStorage();        \r\n        ets.totalSupply += _value;\r\n        ets.balances[_to] += _value;\r\n    }\r\n\r\n    function proposalCount() external view returns (uint) {\r\n        return governanceStorage().proposalCount;\r\n    }\r\n\r\n    function propose(address _proposalContract, uint _endTime) external {\r\n        uint contractSize;\r\n        assembly { contractSize := extcodesize(_proposalContract) }\r\n        require(contractSize > 0, 'Governance: Proposed contract is empty');\r\n        (ERC20TokenStorage storage ets,\r\n        GovernanceStorage storage gs) = governanceTokenStorage();        \r\n        require(_endTime > block.timestamp + (gs.minimumVotingTime * 3600), 'Governance: Voting time must be longer');\r\n        require(_endTime < block.timestamp + (gs.maximumVotingTime * 3600), 'Governance: Voting time must be shorter');\r\n       \r\n        uint proposerBalance = ets.balances[msg.sender];\r\n        uint totalSupply = ets.totalSupply;\r\n        // proposalThreshold is 1 percent of totalSupply\r\n        require(proposerBalance >= (totalSupply / gs.proposalThresholdDivisor), 'Governance: Balance less than proposer threshold');\r\n        uint proposalId = gs.proposalCount++;\r\n        Proposal storage proposalStorage = gs.proposals[proposalId];\r\n        proposalStorage.proposer = msg.sender;\r\n        proposalStorage.proposalContract = _proposalContract;\r\n        proposalStorage.endTime = uint64(_endTime);\r\n        // adding vote\r\n        proposalStorage.forVotes = uint96(proposerBalance);\r\n        proposalStorage.voted[msg.sender] = Voted(uint96(proposerBalance), true);\r\n        gs.votedProposalIds[msg.sender].push(uint24(proposalId));\r\n        emit Vote(proposalId, msg.sender, proposerBalance, true);\r\n    }\r\n\r\n    function executeProposal(uint _proposalId) external {\r\n        (ERC20TokenStorage storage ets,\r\n        GovernanceStorage storage gs) = governanceTokenStorage();\r\n        Proposal storage proposalStorage = gs.proposals[_proposalId];\r\n        address proposer = proposalStorage.proposer;\r\n        require(proposer != address(0), 'Governance: Proposal does not exist');\r\n        require(block.timestamp > proposalStorage.endTime, 'Governance: Voting hasn\\'t ended');        \r\n        require(proposalStorage.executed != true, 'Governance: Proposal has already been executed');\r\n        proposalStorage.executed = true;\r\n        uint totalSupply = ets.totalSupply;\r\n        uint forVotes = proposalStorage.forVotes;\r\n        uint againstVotes = proposalStorage.againstVotes;\r\n        bool proposalPassed = forVotes > againstVotes && forVotes > ets.totalSupply / gs.quorumDivisor;\r\n        uint votes = proposalStorage.voted[proposer].votes;        \r\n        if(proposalPassed) {\r\n            address proposalContract = proposalStorage.proposalContract;\r\n            uint contractSize;            \r\n            assembly { contractSize := extcodesize(proposalContract) }\r\n            if(contractSize > 0) {                        \r\n                (bool success, bytes memory error) = proposalContract.delegatecall(abi.encodeWithSignature('execute', _proposalId));                \r\n                if(success) {\r\n                    if(totalSupply < ets.totalSupplyCap) {\r\n                        uint fractionOfTotalSupply = totalSupply / gs.voteAwardCapDivisor;\r\n                        if(votes > fractionOfTotalSupply) {\r\n                            votes = fractionOfTotalSupply;\r\n                        }\r\n                        // 5 percent reward\r\n                        uint proposerAwardDivisor = gs.proposerAwardDivisor;\r\n                        ets.totalSupply += uint96(votes / proposerAwardDivisor);\r\n                        ets.balances[proposer] += votes / proposerAwardDivisor;\r\n                    }\r\n                    emit ProposalExecutionSuccessful(_proposalId, true);\r\n                }\r\n                else {\r\n                    proposalStorage.stuck = true;\r\n                    proposalStorage.executed = false;\r\n                    emit ProposalExecutionFailed(_proposalId, error);                                \r\n                }\r\n            }\r\n            else {\r\n                proposalStorage.stuck = true;\r\n                proposalStorage.executed = false;\r\n                emit ProposalExecutionFailed(_proposalId, bytes('Proposal contract size is 0'));\r\n            }\r\n        }\r\n        else {\r\n            ets.balances[proposer] -= votes;\r\n            emit ProposalExecutionSuccessful(_proposalId, false);\r\n        }                \r\n    }\r\n\r\n    enum ProposalStatus { \r\n        NoProposal,\r\n        PassedAndReadyForExecution, \r\n        RejectedAndReadyForExecution,\r\n        PassedAndExecutionStuck,\r\n        VotePending,\r\n        Passed,  \r\n        Rejected        \r\n    }\r\n\r\n    function proposalStatus(uint _proposalId) public view returns (ProposalStatus status) {\r\n        (ERC20TokenStorage storage ets,\r\n        GovernanceStorage storage gs) = governanceTokenStorage();\r\n        Proposal storage proposalStorage = gs.proposals[_proposalId];\r\n        uint endTime = proposalStorage.endTime;\r\n        if(endTime == 0) {\r\n            status = ProposalStatus.NoProposal;\r\n        }\r\n        else if(block.number < endTime) {\r\n            status = ProposalStatus.VotePending;\r\n        }\r\n        else if(proposalStorage.stuck) {\r\n            status = ProposalStatus.PassedAndExecutionStuck;\r\n        }\r\n        else {\r\n            uint forVotes = proposalStorage.forVotes;\r\n            bool passed = forVotes > proposalStorage.againstVotes && forVotes > ets.totalSupply / gs.quorumDivisor;\r\n            if(proposalStorage.executed) {\r\n                if(passed) {\r\n                    status = ProposalStatus.Passed;\r\n                }\r\n                else {\r\n                    status = ProposalStatus.Rejected;\r\n                }\r\n            }\r\n            else {\r\n                if(passed) {\r\n                    status = ProposalStatus.PassedAndReadyForExecution;\r\n                }\r\n                else {\r\n                    status = ProposalStatus.RejectedAndReadyForExecution;\r\n                }\r\n            }\r\n        }\r\n    }\r\n    \r\n    struct RetrievedProposal {\r\n        address proposalContract;\r\n        address proposer;\r\n        uint64 endTime;                \r\n        uint96 againstVotes;\r\n        uint96 forVotes;\r\n        ProposalStatus status;\r\n    }\r\n\r\n    function proposal(uint _proposalId) external view returns (RetrievedProposal memory retrievedProposal) {\r\n        GovernanceStorage storage gs = governanceStorage();\r\n        Proposal storage proposalStorage = gs.proposals[_proposalId];\r\n        retrievedProposal = RetrievedProposal({\r\n            proposalContract: proposalStorage.proposalContract,\r\n            proposer: proposalStorage.proposer,\r\n            endTime: proposalStorage.endTime,                        \r\n            againstVotes: proposalStorage.againstVotes,\r\n            forVotes: proposalStorage.forVotes,\r\n            status: proposalStatus(_proposalId)\r\n        });        \r\n    }\r\n\r\n    function vote(uint _proposalId, bool _support) external {\r\n        (ERC20TokenStorage storage ets,\r\n        GovernanceStorage storage gs) = governanceTokenStorage();\r\n        require(_proposalId < gs.proposalCount, 'Governance: _proposalId does not exist');\r\n        Proposal storage proposalStorage = gs.proposals[_proposalId];\r\n        require(block.timestamp < proposalStorage.endTime, 'Governance: Voting ended');\r\n        require(proposalStorage.voted[msg.sender].votes == 0, 'Governance: Already voted');        \r\n        uint balance = ets.balances[msg.sender];\r\n        if(_support) {\r\n            proposalStorage.forVotes += uint96(balance);\r\n        }\r\n        else {\r\n            proposalStorage.againstVotes += uint96(balance);\r\n        }\r\n        proposalStorage.voted[msg.sender] = Voted(uint96(balance), _support);\r\n        gs.votedProposalIds[msg.sender].push(uint24(_proposalId));\r\n        emit Vote(_proposalId, msg.sender, balance, _support);        \r\n        uint totalSupply = ets.totalSupply;\r\n        if(totalSupply < ets.totalSupplyCap) {\r\n            // Reward voter with increase in token            \r\n            uint fractionOfTotalSupply = ets.totalSupply / gs.voteAwardCapDivisor;\r\n            if(balance > fractionOfTotalSupply) {\r\n                balance = fractionOfTotalSupply;\r\n            }\r\n            uint voterAwardDivisor = gs.voterAwardDivisor;\r\n            ets.totalSupply += uint96(balance / voterAwardDivisor);\r\n            ets.balances[msg.sender] += balance / voterAwardDivisor;\r\n        }\r\n    }\r\n\r\n    function unvote(uint _proposalId) external {\r\n        (ERC20TokenStorage storage ets,\r\n        GovernanceStorage storage gs) = governanceTokenStorage();\r\n        require(_proposalId < gs.proposalCount, 'Governance: _proposalId does not exist');\r\n        Proposal storage proposalStorage = gs.proposals[_proposalId];\r\n        require(block.timestamp < proposalStorage.endTime, 'Governance: Voting ended'); \r\n        require(proposalStorage.proposer != msg.sender, 'Governance: Can\\'t unvote your own proposal');       \r\n        uint votes = proposalStorage.voted[msg.sender].votes;\r\n        bool support = proposalStorage.voted[msg.sender].support;\r\n        require(votes > 0, 'Governance: Did not vote');                \r\n        if(support) {\r\n            proposalStorage.forVotes -= uint96(votes);\r\n        }\r\n        else {\r\n            proposalStorage.againstVotes -= uint96(votes);\r\n        }\r\n        delete proposalStorage.voted[msg.sender];\r\n        uint24[] storage proposalIds = gs.votedProposalIds[msg.sender];\r\n        uint length = proposalIds.length;\r\n        uint index;\r\n        for(; index < length; index++) {\r\n            if(uint(proposalIds[index]) == _proposalId) {\r\n                break;\r\n            }\r\n        }\r\n        uint lastIndex = length-1;\r\n        if(lastIndex != index) {\r\n            proposalIds[index] = proposalIds[lastIndex];    \r\n        }\r\n        proposalIds.pop();\r\n        emit UnVote(_proposalId, msg.sender, votes, support);\r\n        // Remove voter reward\r\n        uint voterAwardDivisor = gs.voterAwardDivisor;\r\n        ets.totalSupply -= uint96(votes / voterAwardDivisor);\r\n        ets.balances[msg.sender] -= votes / voterAwardDivisor;\r\n    }\r\n\r\n}",
  "sourcePath": "C:\\Users\\mudge\\projects\\governance-token-diamond\\contracts\\facets\\Governance.sol",
  "compiler": {
    "name": "solc",
    "version": "0.7.0+commit.9e61f92b.Emscripten.clang"
  },
  "schemaVersion": "3.1.0",
  "updatedAt": "2020-08-07T18:06:06.695Z",
  "devdoc": {
    "kind": "dev",
    "methods": {},
    "version": 1
  },
  "userdoc": {
    "kind": "user",
    "methods": {},
    "version": 1
  }
}