{
  "contractName": "Governance",
  "abi": [
    {
      "anonymous": false,
      "inputs": [
        {
          "indexed": false,
          "internalType": "bytes[]",
          "name": "_diamondCut",
          "type": "bytes[]"
        }
      ],
      "name": "DiamondCut",
      "type": "event"
    },
    {
      "anonymous": false,
      "inputs": [
        {
          "indexed": false,
          "internalType": "uint256",
          "name": "_proposalId",
          "type": "uint256"
        },
        {
          "indexed": false,
          "internalType": "bytes",
          "name": "_error",
          "type": "bytes"
        }
      ],
      "name": "ProposalExecutionFailed",
      "type": "event"
    },
    {
      "anonymous": false,
      "inputs": [
        {
          "indexed": false,
          "internalType": "uint256",
          "name": "_proposalId",
          "type": "uint256"
        },
        {
          "indexed": false,
          "internalType": "bool",
          "name": "_passed",
          "type": "bool"
        }
      ],
      "name": "ProposalExecutionSuccessful",
      "type": "event"
    },
    {
      "anonymous": false,
      "inputs": [
        {
          "indexed": false,
          "internalType": "address",
          "name": "_proposer",
          "type": "address"
        },
        {
          "indexed": false,
          "internalType": "address",
          "name": "_proposalContract",
          "type": "address"
        },
        {
          "indexed": false,
          "internalType": "uint256",
          "name": "_endTime",
          "type": "uint256"
        }
      ],
      "name": "Propose",
      "type": "event"
    },
    {
      "anonymous": false,
      "inputs": [
        {
          "indexed": true,
          "internalType": "uint256",
          "name": "_proposalId",
          "type": "uint256"
        },
        {
          "indexed": true,
          "internalType": "address",
          "name": "_voter",
          "type": "address"
        },
        {
          "indexed": false,
          "internalType": "uint256",
          "name": "_votes",
          "type": "uint256"
        },
        {
          "indexed": false,
          "internalType": "bool",
          "name": "_support",
          "type": "bool"
        }
      ],
      "name": "UnVote",
      "type": "event"
    },
    {
      "anonymous": false,
      "inputs": [
        {
          "indexed": true,
          "internalType": "uint256",
          "name": "_proposalId",
          "type": "uint256"
        },
        {
          "indexed": true,
          "internalType": "address",
          "name": "_voter",
          "type": "address"
        },
        {
          "indexed": false,
          "internalType": "uint256",
          "name": "_votes",
          "type": "uint256"
        },
        {
          "indexed": false,
          "internalType": "bool",
          "name": "_support",
          "type": "bool"
        }
      ],
      "name": "Vote",
      "type": "event"
    },
    {
      "inputs": [],
      "name": "proposalCount",
      "outputs": [
        {
          "internalType": "uint256",
          "name": "",
          "type": "uint256"
        }
      ],
      "stateMutability": "view",
      "type": "function"
    },
    {
      "inputs": [
        {
          "internalType": "address",
          "name": "_proposalContract",
          "type": "address"
        },
        {
          "internalType": "uint256",
          "name": "_endTime",
          "type": "uint256"
        }
      ],
      "name": "propose",
      "outputs": [
        {
          "internalType": "uint256",
          "name": "proposalId",
          "type": "uint256"
        }
      ],
      "stateMutability": "nonpayable",
      "type": "function"
    },
    {
      "inputs": [
        {
          "internalType": "uint256",
          "name": "_proposalId",
          "type": "uint256"
        }
      ],
      "name": "executeProposal",
      "outputs": [],
      "stateMutability": "nonpayable",
      "type": "function"
    },
    {
      "inputs": [
        {
          "internalType": "uint256",
          "name": "_proposalId",
          "type": "uint256"
        }
      ],
      "name": "proposalStatus",
      "outputs": [
        {
          "internalType": "enum Governance.ProposalStatus",
          "name": "status",
          "type": "uint8"
        }
      ],
      "stateMutability": "view",
      "type": "function"
    },
    {
      "inputs": [
        {
          "internalType": "uint256",
          "name": "_proposalId",
          "type": "uint256"
        }
      ],
      "name": "proposal",
      "outputs": [
        {
          "components": [
            {
              "internalType": "address",
              "name": "proposalContract",
              "type": "address"
            },
            {
              "internalType": "address",
              "name": "proposer",
              "type": "address"
            },
            {
              "internalType": "uint64",
              "name": "endTime",
              "type": "uint64"
            },
            {
              "internalType": "uint96",
              "name": "againstVotes",
              "type": "uint96"
            },
            {
              "internalType": "uint96",
              "name": "forVotes",
              "type": "uint96"
            },
            {
              "internalType": "enum Governance.ProposalStatus",
              "name": "status",
              "type": "uint8"
            }
          ],
          "internalType": "struct Governance.RetrievedProposal",
          "name": "retrievedProposal",
          "type": "tuple"
        }
      ],
      "stateMutability": "view",
      "type": "function"
    },
    {
      "inputs": [
        {
          "internalType": "uint256",
          "name": "_proposalId",
          "type": "uint256"
        },
        {
          "internalType": "bool",
          "name": "_support",
          "type": "bool"
        }
      ],
      "name": "vote",
      "outputs": [],
      "stateMutability": "nonpayable",
      "type": "function"
    },
    {
      "inputs": [
        {
          "internalType": "uint256",
          "name": "_proposalId",
          "type": "uint256"
        }
      ],
      "name": "unvote",
      "outputs": [],
      "stateMutability": "nonpayable",
      "type": "function"
    }
  ],
  "bytecode": "0x608060405234801561001057600080fd5b506128ee806100206000396000f3fe608060405234801561001057600080fd5b506004361061007d5760003560e01c8063589de5df1161005b578063589de5df146100ea57806374c260cf1461011a578063c9d27afe1461014a578063da35c664146101665761007d565b80630d61b5191461008257806330326c171461009e57806351ec4285146100ce575b600080fd5b61009c60048036038101906100979190611ea2565b610184565b005b6100b860048036038101906100b39190611ea2565b6108ee565b6040516100c5919061268c565b60405180910390f35b6100e860048036038101906100e39190611ea2565b610a4e565b005b61010460048036038101906100ff9190611e66565b611079565b60405161011191906126a7565b60405180910390f35b610134600480360381019061012f9190611ea2565b611585565b60405161014191906124f1565b60405180910390f35b610164600480360381019061015f9190611ecb565b61172c565b005b61016e611cea565b60405161017b91906126a7565b60405180910390f35b60008061018f611d11565b915091506000816000016000858152602001908152602001600020905060008160020160009054906101000a900473ffffffffffffffffffffffffffffffffffffffff169050600073ffffffffffffffffffffffffffffffffffffffff168173ffffffffffffffffffffffffffffffffffffffff161415610245576040517f08c379a000000000000000000000000000000000000000000000000000000000815260040161023c906125ac565b60405180910390fd5b8160020160149054906101000a900467ffffffffffffffff1667ffffffffffffffff1642116102a9576040517f08c379a00000000000000000000000000000000000000000000000000000000081526004016102a0906125cc565b60405180910390fd5b6001151582600201601c9054906101000a900460ff1615151415610302576040517f08c379a00000000000000000000000000000000000000000000000000000000081526004016102f99061264c565b60405180910390fd5b600182600201601c6101000a81548160ff021916908315150217905550600084600201600c9054906101000a90046bffffffffffffffffffffffff166bffffffffffffffffffffffff169050600083600301600c9054906101000a90046bffffffffffffffffffffffff166bffffffffffffffffffffffff16905060008460030160009054906101000a90046bffffffffffffffffffffffff166bffffffffffffffffffffffff1690506000818311801561041157508660020160089054906101000a900460ff1660ff1688600201600c9054906101000a90046bffffffffffffffffffffffff166bffffffffffffffffffffffff16816103ff57fe5b046bffffffffffffffffffffffff1683115b905060008660000160008773ffffffffffffffffffffffffffffffffffffffff1673ffffffffffffffffffffffffffffffffffffffff16815260200190815260200160002060000160009054906101000a90046bffffffffffffffffffffffff166bffffffffffffffffffffffff16905081156108585760008760010160009054906101000a900473ffffffffffffffffffffffffffffffffffffffff1690506000813b905060008111156107a857600060608373ffffffffffffffffffffffffffffffffffffffff168e6040516024016104ec91906126a7565b6040516020818303038152906040527fc640060c000000000000000000000000000000000000000000000000000000007bffffffffffffffffffffffffffffffffffffffffffffffffffffffff19166020820180517bffffffffffffffffffffffffffffffffffffffffffffffffffffffff838183161783525050505060405161057691906124a3565b600060405180830381855af49150503d80600081146105b1576040519150601f19603f3d011682016040523d82523d6000602084013e6105b6565b606091505b5091509150811561072d578c60020160009054906101000a90046bffffffffffffffffffffffff166bffffffffffffffffffffffff168910156106ee5760008c600201600b9054906101000a900460ff1660ff168a8161061257fe5b04905080861115610621578095505b60008d60020160099054906101000a900460ff1660ff16905080878161064357fe5b048f600201600c8282829054906101000a90046bffffffffffffffffffffffff160192506101000a8154816bffffffffffffffffffffffff02191690836bffffffffffffffffffffffff16021790555080878161069c57fe5b048f60000160008e73ffffffffffffffffffffffffffffffffffffffff1673ffffffffffffffffffffffffffffffffffffffff1681526020019081526020016000206000828254019250508190555050505b7f989b5c18710bf76d31c802ce40e50b6ab61dd73dedbe4b2bf6808d35a517d2d18e60016040516107209291906126c2565b60405180910390a16107a1565b60018b600201601d6101000a81548160ff02191690831515021790555060008b600201601c6101000a81548160ff0219169083151502179055507f0418cb6608187ab509202d493686813fe6cad355c4250c11655e139d9b96d2138e826040516107989291906126eb565b60405180910390a15b5050610851565b600189600201601d6101000a81548160ff021916908315150217905550600089600201601c6101000a81548160ff0219169083151502179055507f0418cb6608187ab509202d493686813fe6cad355c4250c11655e139d9b96d2138c6040518060400160405280601b81526020017f50726f706f73616c20636f6e74726163742073697a65206973203000000000008152506040516108489291906126eb565b60405180910390a15b50506108e2565b808960000160008873ffffffffffffffffffffffffffffffffffffffff1673ffffffffffffffffffffffffffffffffffffffff168152602001908152602001600020600082825403925050819055507f989b5c18710bf76d31c802ce40e50b6ab61dd73dedbe4b2bf6808d35a517d2d18a60006040516108d99291906126c2565b60405180910390a15b50505050505050505050565b6108f6611d94565b6000610900611d67565b9050600081600001600085815260200190815260200160002090506040518060c001604052808260010160009054906101000a900473ffffffffffffffffffffffffffffffffffffffff1673ffffffffffffffffffffffffffffffffffffffff1681526020018260020160009054906101000a900473ffffffffffffffffffffffffffffffffffffffff1673ffffffffffffffffffffffffffffffffffffffff1681526020018260020160149054906101000a900467ffffffffffffffff1667ffffffffffffffff1681526020018260030160009054906101000a90046bffffffffffffffffffffffff166bffffffffffffffffffffffff16815260200182600301600c9054906101000a90046bffffffffffffffffffffffff166bffffffffffffffffffffffff168152602001610a3786611585565b6006811115610a4257fe5b81525092505050919050565b600080610a59611d11565b915091508060020160009054906101000a900462ffffff1662ffffff168310610ab7576040517f08c379a0000000000000000000000000000000000000000000000000000000008152600401610aae9061256c565b60405180910390fd5b600081600001600085815260200190815260200160002090508060020160149054906101000a900467ffffffffffffffff1667ffffffffffffffff164210610b34576040517f08c379a0000000000000000000000000000000000000000000000000000000008152600401610b2b9061252c565b60405180910390fd5b3373ffffffffffffffffffffffffffffffffffffffff168160020160009054906101000a900473ffffffffffffffffffffffffffffffffffffffff1673ffffffffffffffffffffffffffffffffffffffff161415610bc7576040517f08c379a0000000000000000000000000000000000000000000000000000000008152600401610bbe9061262c565b60405180910390fd5b60008160000160003373ffffffffffffffffffffffffffffffffffffffff1673ffffffffffffffffffffffffffffffffffffffff16815260200190815260200160002060000160009054906101000a90046bffffffffffffffffffffffff166bffffffffffffffffffffffff16905060008260000160003373ffffffffffffffffffffffffffffffffffffffff1673ffffffffffffffffffffffffffffffffffffffff168152602001908152602001600020600001600c9054906101000a900460ff16905060008211610ccf576040517f08c379a0000000000000000000000000000000000000000000000000000000008152600401610cc69061260c565b60405180910390fd5b8015610d2a578183600301600c8282829054906101000a90046bffffffffffffffffffffffff160392506101000a8154816bffffffffffffffffffffffff02191690836bffffffffffffffffffffffff160217905550610d7b565b818360030160008282829054906101000a90046bffffffffffffffffffffffff160392506101000a8154816bffffffffffffffffffffffff02191690836bffffffffffffffffffffffff1602179055505b8260000160003373ffffffffffffffffffffffffffffffffffffffff1673ffffffffffffffffffffffffffffffffffffffff168152602001908152602001600020600080820160006101000a8154906bffffffffffffffffffffffff021916905560008201600c6101000a81549060ff0219169055505060008460010160003373ffffffffffffffffffffffffffffffffffffffff1673ffffffffffffffffffffffffffffffffffffffff168152602001908152602001600020905060008180549050905060005b81811015610e9a5788838281548110610e5857fe5b90600052602060002090600a91828204019190066003029054906101000a900462ffffff1662ffffff161415610e8d57610e9a565b8080600101915050610e43565b6000600183039050818114610f1857838181548110610eb557fe5b90600052602060002090600a91828204019190066003029054906101000a900462ffffff16848381548110610ee657fe5b90600052602060002090600a91828204019190066003026101000a81548162ffffff021916908362ffffff1602179055505b83805480610f2257fe5b60019003818190600052602060002090600a91828204019190066003026101000a81549062ffffff021916905590553373ffffffffffffffffffffffffffffffffffffffff168a7f9f1f3135d5625fc2500de56ba019d8c41fa224483192466e055e44447121c8208888604051610f9a9291906126c2565b60405180910390a3600088600201600a9054906101000a900460ff1660ff169050808781610fc457fe5b048a600201600c8282829054906101000a90046bffffffffffffffffffffffff160392506101000a8154816bffffffffffffffffffffffff02191690836bffffffffffffffffffffffff16021790555080878161101d57fe5b048a60000160003373ffffffffffffffffffffffffffffffffffffffff1673ffffffffffffffffffffffffffffffffffffffff168152602001908152602001600020600082825403925050819055505050505050505050505050565b600080833b9050600081116110c3576040517f08c379a00000000000000000000000000000000000000000000000000000000081526004016110ba9061254c565b60405180910390fd5b6000806110ce611d11565b91509150610e108160020160049054906101000a900461ffff160261ffff1642018511611130576040517f08c379a0000000000000000000000000000000000000000000000000000000008152600401611127906125ec565b60405180910390fd5b610e108160020160069054906101000a900461ffff160261ffff164201851061118e576040517f08c379a00000000000000000000000000000000000000000000000000000000081526004016111859061258c565b60405180910390fd5b60008260000160003373ffffffffffffffffffffffffffffffffffffffff1673ffffffffffffffffffffffffffffffffffffffff168152602001908152602001600020549050600083600201600c9054906101000a90046bffffffffffffffffffffffff166bffffffffffffffffffffffff1690508260020160039054906101000a900460ff1660ff16818161122057fe5b04821015611263576040517f08c379a000000000000000000000000000000000000000000000000000000000815260040161125a9061250c565b60405180910390fd5b82600201600081819054906101000a900462ffffff168092919060010191906101000a81548162ffffff021916908362ffffff16021790555062ffffff16955060008360000160008881526020019081526020016000209050338160020160006101000a81548173ffffffffffffffffffffffffffffffffffffffff021916908373ffffffffffffffffffffffffffffffffffffffff160217905550888160010160006101000a81548173ffffffffffffffffffffffffffffffffffffffff021916908373ffffffffffffffffffffffffffffffffffffffff160217905550878160020160146101000a81548167ffffffffffffffff021916908367ffffffffffffffff1602179055507f7635f1d87b47fba9f2b09e56eb4be75cca030e0cb179c1602ac9261d39a8f5c1338a8a6040516113a0939291906124ba565b60405180910390a18281600301600c6101000a8154816bffffffffffffffffffffffff02191690836bffffffffffffffffffffffff1602179055506040518060400160405280846bffffffffffffffffffffffff168152602001600115158152508160000160003373ffffffffffffffffffffffffffffffffffffffff1673ffffffffffffffffffffffffffffffffffffffff16815260200190815260200160002060008201518160000160006101000a8154816bffffffffffffffffffffffff02191690836bffffffffffffffffffffffff160217905550602082015181600001600c6101000a81548160ff0219169083151502179055509050508360010160003373ffffffffffffffffffffffffffffffffffffffff1673ffffffffffffffffffffffffffffffffffffffff1681526020019081526020016000208790806001815401808255809150506001900390600052602060002090600a91828204019190066003029091909190916101000a81548162ffffff021916908362ffffff1602179055503373ffffffffffffffffffffffffffffffffffffffff16877f833b8bad1ff76b718af5adb72da0547533a1fb1ff56639c0b2597d636830b0a78560016040516115719291906126c2565b60405180910390a350505050505092915050565b6000806000611592611d11565b915091506000816000016000868152602001908152602001600020905060008160020160149054906101000a900467ffffffffffffffff1667ffffffffffffffff16905060008114156115e85760009450611723565b804310156115f95760049450611722565b81600201601d9054906101000a900460ff16156116195760039450611721565b600082600301600c9054906101000a90046bffffffffffffffffffffffff166bffffffffffffffffffffffff16905060008360030160009054906101000a90046bffffffffffffffffffffffff166bffffffffffffffffffffffff16821180156116d757508460020160089054906101000a900460ff1660ff1686600201600c9054906101000a90046bffffffffffffffffffffffff166bffffffffffffffffffffffff16816116c557fe5b046bffffffffffffffffffffffff1682115b905083600201601c9054906101000a900460ff16156117095780156116ff5760059650611704565b600696505b61171e565b8015611718576001965061171d565b600296505b5b50505b5b5b50505050919050565b600080611737611d11565b915091508060020160009054906101000a900462ffffff1662ffffff168410611795576040517f08c379a000000000000000000000000000000000000000000000000000000000815260040161178c9061256c565b60405180910390fd5b600081600001600086815260200190815260200160002090508060020160149054906101000a900467ffffffffffffffff1667ffffffffffffffff164210611812576040517f08c379a00000000000000000000000000000000000000000000000000000000081526004016118099061252c565b60405180910390fd5b60008160000160003373ffffffffffffffffffffffffffffffffffffffff1673ffffffffffffffffffffffffffffffffffffffff16815260200190815260200160002060000160009054906101000a90046bffffffffffffffffffffffff166bffffffffffffffffffffffff16146118bf576040517f08c379a00000000000000000000000000000000000000000000000000000000081526004016118b69061266c565b60405180910390fd5b60008360000160003373ffffffffffffffffffffffffffffffffffffffff1673ffffffffffffffffffffffffffffffffffffffff1681526020019081526020016000205490508415611960578082600301600c8282829054906101000a90046bffffffffffffffffffffffff160192506101000a8154816bffffffffffffffffffffffff02191690836bffffffffffffffffffffffff1602179055506119b1565b808260030160008282829054906101000a90046bffffffffffffffffffffffff160192506101000a8154816bffffffffffffffffffffffff02191690836bffffffffffffffffffffffff1602179055505b6040518060400160405280826bffffffffffffffffffffffff1681526020018615158152508260000160003373ffffffffffffffffffffffffffffffffffffffff1673ffffffffffffffffffffffffffffffffffffffff16815260200190815260200160002060008201518160000160006101000a8154816bffffffffffffffffffffffff02191690836bffffffffffffffffffffffff160217905550602082015181600001600c6101000a81548160ff0219169083151502179055509050508260010160003373ffffffffffffffffffffffffffffffffffffffff1673ffffffffffffffffffffffffffffffffffffffff1681526020019081526020016000208690806001815401808255809150506001900390600052602060002090600a91828204019190066003029091909190916101000a81548162ffffff021916908362ffffff1602179055503373ffffffffffffffffffffffffffffffffffffffff16867f833b8bad1ff76b718af5adb72da0547533a1fb1ff56639c0b2597d636830b0a78388604051611b459291906126c2565b60405180910390a3600084600201600c9054906101000a90046bffffffffffffffffffffffff166bffffffffffffffffffffffff1690508460020160009054906101000a90046bffffffffffffffffffffffff166bffffffffffffffffffffffff16811015611ce157600084600201600b9054906101000a900460ff1660ff1686600201600c9054906101000a90046bffffffffffffffffffffffff166bffffffffffffffffffffffff1681611bf757fe5b046bffffffffffffffffffffffff16905080831115611c14578092505b600085600201600a9054906101000a900460ff1660ff169050808481611c3657fe5b0487600201600c8282829054906101000a90046bffffffffffffffffffffffff160192506101000a8154816bffffffffffffffffffffffff02191690836bffffffffffffffffffffffff160217905550808481611c8f57fe5b048760000160003373ffffffffffffffffffffffffffffffffffffffff1673ffffffffffffffffffffffffffffffffffffffff1681526020019081526020016000206000828254019250508190555050505b50505050505050565b6000611cf4611d67565b60020160009054906101000a900462ffffff1662ffffff16905090565b60008060007f6ed1e8b58b8677af52e598804adae6eaacd4c419a6334c92069fde3cd6d8affc90508092507ff11e38b1456bc2ebbd0be55bac6674a44df0110b10ef9e7276d89cfc157e304a9050809150509091565b6000807ff11e38b1456bc2ebbd0be55bac6674a44df0110b10ef9e7276d89cfc157e304a90508091505090565b6040518060c00160405280600073ffffffffffffffffffffffffffffffffffffffff168152602001600073ffffffffffffffffffffffffffffffffffffffff168152602001600067ffffffffffffffff16815260200160006bffffffffffffffffffffffff16815260200160006bffffffffffffffffffffffff16815260200160006006811115611e2157fe5b81525090565b600081359050611e3681612873565b92915050565b600081359050611e4b8161288a565b92915050565b600081359050611e60816128a1565b92915050565b60008060408385031215611e7957600080fd5b6000611e8785828601611e27565b9250506020611e9885828601611e51565b9150509250929050565b600060208284031215611eb457600080fd5b6000611ec284828501611e51565b91505092915050565b60008060408385031215611ede57600080fd5b6000611eec85828601611e51565b9250506020611efd85828601611e3c565b9150509250929050565b611f10816127da565b82525050565b611f1f81612753565b82525050565b611f2e81612753565b82525050565b611f3d81612765565b82525050565b6000611f4e8261271b565b611f588185612726565b9350611f68818560208601612822565b611f7181612855565b840191505092915050565b6000611f878261271b565b611f918185612737565b9350611fa1818560208601612822565b80840191505092915050565b611fb6816127ec565b82525050565b611fc5816127ec565b82525050565b6000611fd8603083612742565b91507f476f7665726e616e63653a2042616c616e6365206c657373207468616e20707260008301527f6f706f736572207468726573686f6c64000000000000000000000000000000006020830152604082019050919050565b600061203e601883612742565b91507f476f7665726e616e63653a20566f74696e6720656e64656400000000000000006000830152602082019050919050565b600061207e602683612742565b91507f476f7665726e616e63653a2050726f706f73656420636f6e747261637420697360008301527f20656d70747900000000000000000000000000000000000000000000000000006020830152604082019050919050565b60006120e4602683612742565b91507f476f7665726e616e63653a205f70726f706f73616c496420646f6573206e6f7460008301527f20657869737400000000000000000000000000000000000000000000000000006020830152604082019050919050565b600061214a602783612742565b91507f476f7665726e616e63653a20566f74696e672074696d65206d7573742062652060008301527f73686f72746572000000000000000000000000000000000000000000000000006020830152604082019050919050565b60006121b0602383612742565b91507f476f7665726e616e63653a2050726f706f73616c20646f6573206e6f7420657860008301527f69737400000000000000000000000000000000000000000000000000000000006020830152604082019050919050565b6000612216601f83612742565b91507f476f7665726e616e63653a20566f74696e67206861736e277420656e646564006000830152602082019050919050565b6000612256602683612742565b91507f476f7665726e616e63653a20566f74696e672074696d65206d7573742062652060008301527f6c6f6e67657200000000000000000000000000000000000000000000000000006020830152604082019050919050565b60006122bc601883612742565b91507f476f7665726e616e63653a20446964206e6f7420766f746500000000000000006000830152602082019050919050565b60006122fc602a83612742565b91507f476f7665726e616e63653a2043616e277420756e766f746520796f7572206f7760008301527f6e2070726f706f73616c000000000000000000000000000000000000000000006020830152604082019050919050565b6000612362602e83612742565b91507f476f7665726e616e63653a2050726f706f73616c2068617320616c726561647960008301527f206265656e2065786563757465640000000000000000000000000000000000006020830152604082019050919050565b60006123c8601983612742565b91507f476f7665726e616e63653a20416c726561647920766f746564000000000000006000830152602082019050919050565b60c0820160008201516124116000850182611f16565b5060208201516124246020850182611f16565b5060408201516124376040850182612485565b50606082015161244a6060850182612494565b50608082015161245d6080850182612494565b5060a082015161247060a0850182611fad565b50505050565b61247f816127a4565b82525050565b61248e816127ae565b82525050565b61249d816127c2565b82525050565b60006124af8284611f7c565b915081905092915050565b60006060820190506124cf6000830186611f07565b6124dc6020830185611f25565b6124e96040830184612476565b949350505050565b60006020820190506125066000830184611fbc565b92915050565b6000602082019050818103600083015261252581611fcb565b9050919050565b6000602082019050818103600083015261254581612031565b9050919050565b6000602082019050818103600083015261256581612071565b9050919050565b60006020820190508181036000830152612585816120d7565b9050919050565b600060208201905081810360008301526125a58161213d565b9050919050565b600060208201905081810360008301526125c5816121a3565b9050919050565b600060208201905081810360008301526125e581612209565b9050919050565b6000602082019050818103600083015261260581612249565b9050919050565b60006020820190508181036000830152612625816122af565b9050919050565b60006020820190508181036000830152612645816122ef565b9050919050565b6000602082019050818103600083015261266581612355565b9050919050565b60006020820190508181036000830152612685816123bb565b9050919050565b600060c0820190506126a160008301846123fb565b92915050565b60006020820190506126bc6000830184612476565b92915050565b60006040820190506126d76000830185612476565b6126e46020830184611f34565b9392505050565b60006040820190506127006000830185612476565b81810360208301526127128184611f43565b90509392505050565b600081519050919050565b600082825260208201905092915050565b600081905092915050565b600082825260208201905092915050565b600061275e82612784565b9050919050565b60008115159050919050565b600081905061277f82612866565b919050565b600073ffffffffffffffffffffffffffffffffffffffff82169050919050565b6000819050919050565b600067ffffffffffffffff82169050919050565b60006bffffffffffffffffffffffff82169050919050565b60006127e5826127fe565b9050919050565b60006127f782612771565b9050919050565b600061280982612810565b9050919050565b600061281b82612784565b9050919050565b60005b83811015612840578082015181840152602081019050612825565b8381111561284f576000848401525b50505050565b6000601f19601f8301169050919050565b6007811061287057fe5b50565b61287c81612753565b811461288757600080fd5b50565b61289381612765565b811461289e57600080fd5b50565b6128aa816127a4565b81146128b557600080fd5b5056fea26469706673582212201fe7a9f50d488374bc8bcb71d0987dfe5035cd0cbd7e19d508fef173f4d3917364736f6c63430007000033",
  "immutableReferences": {},
  "source": "// SPDX-License-Identifier: MIT\r\npragma solidity ^0.7.0;\r\npragma experimental ABIEncoderV2;\r\n\r\nimport { IERC20 } from '../interfaces/IERC20.sol';\r\nimport { InternalFunctions } from '../lib/InternalFunctions.sol';\r\n\r\n\r\n\r\ncontract Governance is InternalFunctions {\r\n    \r\n    event Propose(address _proposer, address _proposalContract, uint _endTime);\r\n    event Vote(uint indexed _proposalId, address indexed _voter, uint _votes, bool _support);\r\n    event UnVote(uint indexed _proposalId, address indexed _voter, uint _votes, bool _support);     \r\n    event ProposalExecutionSuccessful(uint _proposalId, bool _passed);\r\n    event ProposalExecutionFailed(uint _proposalId, bytes _error);     \r\n\r\n    function proposalCount() external view returns (uint) {\r\n        return governanceStorage().proposalCount;\r\n    }\r\n\r\n    function propose(address _proposalContract, uint _endTime) external returns (uint proposalId) {\r\n        uint contractSize;\r\n        assembly { contractSize := extcodesize(_proposalContract) }\r\n        require(contractSize > 0, 'Governance: Proposed contract is empty');\r\n        (ERC20TokenStorage storage ets,\r\n        GovernanceStorage storage gs) = governanceTokenStorage();        \r\n        require(_endTime > block.timestamp + (gs.minimumVotingTime * 3600), 'Governance: Voting time must be longer');\r\n        require(_endTime < block.timestamp + (gs.maximumVotingTime * 3600), 'Governance: Voting time must be shorter');\r\n       \r\n        uint proposerBalance = ets.balances[msg.sender];\r\n        uint totalSupply = ets.totalSupply;        \r\n        require(proposerBalance >= (totalSupply / gs.proposalThresholdDivisor), 'Governance: Balance less than proposer threshold');\r\n        proposalId = gs.proposalCount++;\r\n        Proposal storage proposalStorage = gs.proposals[proposalId];\r\n        proposalStorage.proposer = msg.sender;\r\n        proposalStorage.proposalContract = _proposalContract;\r\n        proposalStorage.endTime = uint64(_endTime);\r\n        emit Propose(msg.sender, _proposalContract, _endTime);\r\n        // adding vote\r\n        proposalStorage.forVotes = uint96(proposerBalance);\r\n        proposalStorage.voted[msg.sender] = Voted(uint96(proposerBalance), true);\r\n        gs.votedProposalIds[msg.sender].push(uint24(proposalId));\r\n        emit Vote(proposalId, msg.sender, proposerBalance, true);\r\n    }\r\n\r\n    function executeProposal(uint _proposalId) external {\r\n        (ERC20TokenStorage storage ets,\r\n        GovernanceStorage storage gs) = governanceTokenStorage();\r\n        Proposal storage proposalStorage = gs.proposals[_proposalId];\r\n        address proposer = proposalStorage.proposer;\r\n        require(proposer != address(0), 'Governance: Proposal does not exist');\r\n        require(block.timestamp > proposalStorage.endTime, 'Governance: Voting hasn\\'t ended');        \r\n        require(proposalStorage.executed != true, 'Governance: Proposal has already been executed');\r\n        proposalStorage.executed = true;\r\n        uint totalSupply = ets.totalSupply;\r\n        uint forVotes = proposalStorage.forVotes;\r\n        uint againstVotes = proposalStorage.againstVotes;\r\n        bool proposalPassed = forVotes > againstVotes && forVotes > ets.totalSupply / gs.quorumDivisor;\r\n        uint votes = proposalStorage.voted[proposer].votes;        \r\n        if(proposalPassed) {\r\n            address proposalContract = proposalStorage.proposalContract;\r\n            uint contractSize;            \r\n            assembly { contractSize := extcodesize(proposalContract) }\r\n            if(contractSize > 0) {                        \r\n                (bool success, bytes memory error) = proposalContract.delegatecall(abi.encodeWithSignature('execute', _proposalId));                \r\n                if(success) {\r\n                    if(totalSupply < ets.totalSupplyCap) {\r\n                        uint fractionOfTotalSupply = totalSupply / gs.voteAwardCapDivisor;\r\n                        if(votes > fractionOfTotalSupply) {\r\n                            votes = fractionOfTotalSupply;\r\n                        }\r\n                        // 5 percent reward\r\n                        uint proposerAwardDivisor = gs.proposerAwardDivisor;\r\n                        ets.totalSupply += uint96(votes / proposerAwardDivisor);\r\n                        ets.balances[proposer] += votes / proposerAwardDivisor;\r\n                    }\r\n                    emit ProposalExecutionSuccessful(_proposalId, true);\r\n                }\r\n                else {\r\n                    proposalStorage.stuck = true;\r\n                    proposalStorage.executed = false;\r\n                    emit ProposalExecutionFailed(_proposalId, error);                                \r\n                }\r\n            }\r\n            else {\r\n                proposalStorage.stuck = true;\r\n                proposalStorage.executed = false;\r\n                emit ProposalExecutionFailed(_proposalId, bytes('Proposal contract size is 0'));\r\n            }\r\n        }\r\n        else {\r\n            ets.balances[proposer] -= votes;\r\n            emit ProposalExecutionSuccessful(_proposalId, false);\r\n        }                \r\n    }\r\n\r\n    enum ProposalStatus { \r\n        NoProposal,\r\n        PassedAndReadyForExecution, \r\n        RejectedAndReadyForExecution,\r\n        PassedAndExecutionStuck,\r\n        VotePending,\r\n        Passed,  \r\n        Rejected        \r\n    }\r\n\r\n    function proposalStatus(uint _proposalId) public view returns (ProposalStatus status) {\r\n        (ERC20TokenStorage storage ets,\r\n        GovernanceStorage storage gs) = governanceTokenStorage();\r\n        Proposal storage proposalStorage = gs.proposals[_proposalId];\r\n        uint endTime = proposalStorage.endTime;\r\n        if(endTime == 0) {\r\n            status = ProposalStatus.NoProposal;\r\n        }\r\n        else if(block.number < endTime) {\r\n            status = ProposalStatus.VotePending;\r\n        }\r\n        else if(proposalStorage.stuck) {\r\n            status = ProposalStatus.PassedAndExecutionStuck;\r\n        }\r\n        else {\r\n            uint forVotes = proposalStorage.forVotes;\r\n            bool passed = forVotes > proposalStorage.againstVotes && forVotes > ets.totalSupply / gs.quorumDivisor;\r\n            if(proposalStorage.executed) {\r\n                if(passed) {\r\n                    status = ProposalStatus.Passed;\r\n                }\r\n                else {\r\n                    status = ProposalStatus.Rejected;\r\n                }\r\n            }\r\n            else {\r\n                if(passed) {\r\n                    status = ProposalStatus.PassedAndReadyForExecution;\r\n                }\r\n                else {\r\n                    status = ProposalStatus.RejectedAndReadyForExecution;\r\n                }\r\n            }\r\n        }\r\n    }\r\n    \r\n    struct RetrievedProposal {\r\n        address proposalContract;\r\n        address proposer;\r\n        uint64 endTime;                \r\n        uint96 againstVotes;\r\n        uint96 forVotes;\r\n        ProposalStatus status;\r\n    }\r\n\r\n    function proposal(uint _proposalId) external view returns (RetrievedProposal memory retrievedProposal) {\r\n        GovernanceStorage storage gs = governanceStorage();\r\n        Proposal storage proposalStorage = gs.proposals[_proposalId];\r\n        retrievedProposal = RetrievedProposal({\r\n            proposalContract: proposalStorage.proposalContract,\r\n            proposer: proposalStorage.proposer,\r\n            endTime: proposalStorage.endTime,                        \r\n            againstVotes: proposalStorage.againstVotes,\r\n            forVotes: proposalStorage.forVotes,\r\n            status: proposalStatus(_proposalId)\r\n        });        \r\n    }\r\n\r\n    function vote(uint _proposalId, bool _support) external {\r\n        (ERC20TokenStorage storage ets,\r\n        GovernanceStorage storage gs) = governanceTokenStorage();\r\n        require(_proposalId < gs.proposalCount, 'Governance: _proposalId does not exist');\r\n        Proposal storage proposalStorage = gs.proposals[_proposalId];\r\n        require(block.timestamp < proposalStorage.endTime, 'Governance: Voting ended');\r\n        require(proposalStorage.voted[msg.sender].votes == 0, 'Governance: Already voted');        \r\n        uint balance = ets.balances[msg.sender];\r\n        if(_support) {\r\n            proposalStorage.forVotes += uint96(balance);\r\n        }\r\n        else {\r\n            proposalStorage.againstVotes += uint96(balance);\r\n        }\r\n        proposalStorage.voted[msg.sender] = Voted(uint96(balance), _support);\r\n        gs.votedProposalIds[msg.sender].push(uint24(_proposalId));\r\n        emit Vote(_proposalId, msg.sender, balance, _support);        \r\n        uint totalSupply = ets.totalSupply;\r\n        if(totalSupply < ets.totalSupplyCap) {\r\n            // Reward voter with increase in token            \r\n            uint fractionOfTotalSupply = ets.totalSupply / gs.voteAwardCapDivisor;\r\n            if(balance > fractionOfTotalSupply) {\r\n                balance = fractionOfTotalSupply;\r\n            }\r\n            uint voterAwardDivisor = gs.voterAwardDivisor;\r\n            ets.totalSupply += uint96(balance / voterAwardDivisor);\r\n            ets.balances[msg.sender] += balance / voterAwardDivisor;\r\n        }\r\n    }\r\n\r\n    function unvote(uint _proposalId) external {\r\n        (ERC20TokenStorage storage ets,\r\n        GovernanceStorage storage gs) = governanceTokenStorage();\r\n        require(_proposalId < gs.proposalCount, 'Governance: _proposalId does not exist');\r\n        Proposal storage proposalStorage = gs.proposals[_proposalId];\r\n        require(block.timestamp < proposalStorage.endTime, 'Governance: Voting ended'); \r\n        require(proposalStorage.proposer != msg.sender, 'Governance: Can\\'t unvote your own proposal');       \r\n        uint votes = proposalStorage.voted[msg.sender].votes;\r\n        bool support = proposalStorage.voted[msg.sender].support;\r\n        require(votes > 0, 'Governance: Did not vote');                \r\n        if(support) {\r\n            proposalStorage.forVotes -= uint96(votes);\r\n        }\r\n        else {\r\n            proposalStorage.againstVotes -= uint96(votes);\r\n        }\r\n        delete proposalStorage.voted[msg.sender];\r\n        uint24[] storage proposalIds = gs.votedProposalIds[msg.sender];\r\n        uint length = proposalIds.length;\r\n        uint index;\r\n        for(; index < length; index++) {\r\n            if(uint(proposalIds[index]) == _proposalId) {\r\n                break;\r\n            }\r\n        }\r\n        uint lastIndex = length-1;\r\n        if(lastIndex != index) {\r\n            proposalIds[index] = proposalIds[lastIndex];    \r\n        }\r\n        proposalIds.pop();\r\n        emit UnVote(_proposalId, msg.sender, votes, support);\r\n        // Remove voter reward\r\n        uint voterAwardDivisor = gs.voterAwardDivisor;\r\n        ets.totalSupply -= uint96(votes / voterAwardDivisor);\r\n        ets.balances[msg.sender] -= votes / voterAwardDivisor;\r\n    }\r\n\r\n}",
  "sourcePath": "C:\\Users\\mudge\\projects\\governance-token-diamond\\contracts\\facets\\Governance.sol",
  "compiler": {
    "name": "solc",
    "version": "0.7.0+commit.9e61f92b.Emscripten.clang"
  },
  "schemaVersion": "3.1.0",
  "updatedAt": "2020-08-09T20:02:25.419Z",
  "devdoc": {
    "kind": "dev",
    "methods": {},
    "version": 1
  },
  "userdoc": {
    "kind": "user",
    "methods": {},
    "version": 1
  }
}